:100000000C9447050C946F050C946F050C946F05C8
:100010000C946F050C946F050C946F050C946F0590
:100020000C946F050C946F050C946F050C946F0580
:100030000C946F050C946F050C946F050C946F0570
:100040000C94BA120C946F050C946F050C946F0508
:100050000C946F050C946F050C946F050C946F0550
:100060000C9404130C946F0500000000003E5B4FDD
:100070005B3E3E6B4F6B3E1C3E7C3E1C183C7E3C08
:10008000181C577D571C1C5E7F5E1C00183C180016
:10009000FFE7C3E7FF0018241800FFE7DBE7FF30A6
:1000A000483A060E2629792926407F050507407F14
:1000B00005253F5A3CE73C5A7F3E1C1C08081C1C87
:1000C0003E7F14227F22145F5F005F5F06097F017D
:1000D0007F006689956A606060606094A2FFA29468
:1000E00008047E040810207E201008082A1C080836
:1000F0001C2A08081E101010100C1E0C1E0C303884
:100100003E3830060E3E0E06000000000000005F84
:1001100000000007000700147F147F14242A7F2AA0
:100120001223130864623649562050000807030062
:10013000001C2241000041221C002A1C7F1C2A08AE
:10014000083E080800807030000808080808000011
:1001500060600020100804023E5149453E00427F85
:10016000400072494949462141494D331814127FD4
:100170001027454545393C4A494931412111090774
:100180003649494936464949291E000014000000F5
:1001900040340000000814224114141414140041C7
:1001A00022140802015909063E415D594E7C121184
:1001B000127C7F494949363E414141227F414141BC
:1001C0003E7F494949417F090909013E4141517337
:1001D0007F0808087F00417F41002040413F017FA8
:1001E000081422417F404040407F021C027F7F0470
:1001F00008107F3E4141413E7F090909063E4151B9
:10020000215E7F09192946264949493203017F01A8
:10021000033F4040403F1F2040201F3F4038403FA9
:10022000631408146303047804036159494D4300BF
:100230007F4141410204081020004141417F0402F6
:10024000010204404040404000030708002054548D
:1002500078407F284444383844444428384444286B
:100260007F385454541800087E090218A4A49C78BE
:100270007F0804047800447D40002040403D007F1A
:100280001028440000417F40007C047804787C08FA
:100290000404783844444438FC18242418182424CE
:1002A00018FC7C08040408485454542404043F44B3
:1002B000243C4040207C1C2040201C3C4030403CE2
:1002C00044281028444C9090907C4464544C440042
:1002D00008364100000077000000413608000201A6
:1002E0000204023C2623263C1EA1A161123A404092
:1002F000207A38545455592155557941225454780F
:1003000042215554784020545579400C1E527212A7
:100310003955555559395454545939555454580030
:1003200000457C410002457D420001457C407D1234
:1003300011127DF0282528F07C5455450020545496
:100340007C547C0A097F4932494949323A44444441
:100350003A324A4848303A4141217A3A424020787C
:10036000009DA0A07D3D4242423D3D4040403D3C7D
:1003700024FF2424487E4943662B2FFC2F2BFF09A2
:1003800029F620C0887E0903205454794100004496
:100390007D413048484A32384040227A007A0A0A81
:1003A000727D0D19317D2629292F282629292926F4
:1003B00030484D4020380808080808080808382F39
:1003C00010C8ACBA2F102834FA00007B00000814C3
:1003D0002A142222142A14085500550055AA55AA99
:1003E00055AAFF55FF55FF000000FF00101010FF39
:1003F00000141414FF001010FF00FF1010F010F094
:10040000141414FC001414F700FF0000FF00FF1484
:1004100014F404FC141417101F10101F101F1414D0
:10042000141F00101010F0000000001F101010101A
:100430001F10101010F010000000FF10101010100E
:1004400010101010FF10000000FF140000FF00FF4C
:1004500000001F10170000FC04F4141417101714E8
:1004600014F404F40000FF00F7141414141414140A
:10047000F700F7141414171410101F101F1414147D
:10048000F4141010F010F000001F101F0000001FE7
:1004900014000000FC140000F010F01010FF10FF1A
:1004A000141414FF141010101F00000000F010FFAF
:1004B000FFFFFFFFF0F0F0F0F0FFFFFF0000000093
:1004C00000FFFF0F0F0F0F0F3844443844FC4A4A17
:1004D0004A347E02020606027E027E0263554941CC
:1004E000633844443C04407E201E2006027E020203
:1004F00099A5E7A5991C2A492A1C4C7201724C3017
:100500004A4D4D303048784830BC625A463D3E49ED
:100510004949007E0101017E2A2A2A2A2A44445F91
:10052000444440514A444040444A51400000FF0185
:1005300003E080FF000008086B6B08361236243693
:10054000060F090F060000181800000010100030F8
:1005500040FF0101001F01011E00191D1712003C80
:100560003C3C3C0000000000000103070F1F3F7FE0
:100570000080C0E0F0F8FCFE00000000240027002E
:100580002A00DB40A4A62EAF2000A1C8D300408DD6
:10059000AED580A800000000250028002B00000038
:1005A000600000000000000000000000000000E00B
:1005B0000000000000000000000000000001E0005A
:1005C00000000000000000000000000001F000003A
:1005D000000000000000000000000003F000000028
:1005E0000000000000000000000007F00000000014
:1005F00000000000000000000007F80000000000FC
:1006000000000000000000000FF800000003C00020
:100610007E000001E0007F0FF800000003C000FE34
:10062000000001E000FFEFF800000003C000FE0042
:100630000001E000FFFFF800000003C000F0000030
:10064000000F007FFE7FC0000003C000F00000002C
:100650000F003FFE7FF83FF1FBCFFCFEF3BC3DEF08
:10066000E01FFE7FFF7FFBFFDFFEFEFFBC3DEFE0F4
:100670001FC6FFFF7FFBFFDFFEFEFFBC3DEFE00F6D
:10068000E3C7FE787BC3DE1EF0FFBC3DEF0007FF33
:1006900087FC787BC3DE1EF0F83C3DEF0001FFFFD6
:1006A000F0007BC3C01EF0F03C3DEF0001F37FE0A3
:1006B0003FFBC3CFFEF0F03C3DEF0003E33F807F04
:1006C000FBC3DFFEF0F03C3DEF0007E73C00787B2A
:1006D000C3DE1EF0F03C3DEF0007FFBE00787BC399
:1006E000DE1EF0F03C3DEF0007FFFE00787BC3DE2E
:1006F0001EF0F03C3DEF000FFFFE007FFBFFDFFE32
:10070000F0F03FFDEFE00FFFFF007FFBFFDFFEF0AB
:10071000F03FFDEFE00FF9FF003E79F9CF9EF0F0DA
:100720001F3DE7E01FF1FF00000000000000000097
:100730000000001F80FF007FFFFFFFFFFFFFFFFFA4
:10074000FFE01C007F007FFFFFFFFEB46D888D1867
:10075000E000001F007FFFFFFFFE95AD7DB577E055
:1007600000000F007FFFFFFFFEA5AD9D8D19E0008B
:100770000006007FFFFFFFFEB5ADEDB57EE0000097
:100780000000000180000000000000000000038065
:1007900000000000000000000007C0000000000092
:1007A0000000000007C00000000000000000000F73
:1007B000C00000000000000000001FE0000000007A
:1007C00000000000001FE00000000000000000002A
:1007D0003FE00000000000000000003FF0000000CB
:1007E0000000000000007FF0000000000000001F7B
:1007F000F87FF0000000000000003FFE7FF00000E6
:1008000000000000003FFF7FF0000000000000003B
:100810001FFFFBE0000000000000000FFFF9FFC019
:100820000000000000000FFFF9FFF80000000000CA
:100830000007FFF1FFFF00000000000003FC73FF52
:10084000FF80000000000001FE3FFFFF800000006D
:10085000000000FF1E0FFF000000000000007FFEF0
:100860001FFC000000000000003FFFFFF800000038
:10087000000000000FDFFFE0000000000000001F8C
:1008800019FFC0000000000000003F3CFF00000016
:1008900000000000007E7CF8000000000000000066
:1008A0007FFE7C0000000000000000FFFFFC000055
:1008B000000000000000FFFFFE000000000000003C
:1008C00000FFFFFE0000000000000001FFEFFE003F
:1008D00000000000000001FFCFFE0000000000004B
:1008E0000003FF07FE0000000000000003FC07FEFD
:1008F0000000000000000003F003FE000000000004
:100900000000018000FE0000000000000000000068
:100910007E000000000000000000003E000000001B
:100920000000000000000C00000000000007800034
:10093000FC000003C0000000078001FC000003C0B1
:10094000000000078001FC000003C00000000780D9
:1009500001E00000001E000000078001E000000030
:100960001E007FE3F79FF9FDE7787BDFC0FFF7FF0D
:10097000BFFDFDFF787BDFC0FFF7FFBFFDFDFF7808
:100980007BDFC0F0F787BC3DE1FF787BDE00F0F74E
:1009900087BC3DE1F0787BDE0000F787803DE1E039
:1009A000787BDE007FF7879FFDE1E0787BDE00FF4C
:1009B000F787BFFDE1E0787BDE00F0F787BC3DE123
:1009C000E0787BDE00F0F787BC3DE1E0787BDE007D
:1009D000F0F787BC3DE1E0787BDE00FFF7FFBFFD6D
:1009E000E1E07FFBDFC0FFF7FFBFFDE1E07FFBDF62
:1009F000C07CF3F39F3DE1E03E7BCFC000000000F0
:100A000000000000000000FFFFFFFFFFFFFFFFFFEF
:100A1000FFC0FFFFFFFFFD68DB111A31C0FFFFFFC2
:100A2000FFFD2B5AFB6AEFC0FFFFFFFFFD4B5B3B57
:100A30001A33C0FFFFFFFFFD6B5BDB6AFDC00000E8
:100A40000000230026002900040404040404040414
:100A50000202020202020303030303030102040869
:100A60001020408001020408102001020408102018
:100A7000000000080002010000030407000000005D
:100A8000000000002200FF21000023142919112476
:100A90001FBECFEFD8E0DEBFCDBF11E0A0E0B1E0D8
:100AA000ECE3F5E302C005900D92AA37B107D9F740
:100AB00022E0AAE7B1E001C01D92A838B207E1F731
:100AC00015E0C6E4D5E004C02197FE010E945A1942
:100AD000C534D107C9F70E947E140C94911A0C9466
:100AE0000000089508950895AF92BF92CF92DF92CB
:100AF000EF92FF920F931F93CF93DF936C017B01D3
:100B00008B01040F151FEB015E01AE18BF08C01763
:100B1000D10759F06991D601ED91FC910190F081D6
:100B2000E02DC6010995892B79F7C501DF91CF9199
:100B30001F910F91FF90EF90DF90CF90BF90AF90FB
:100B40000895833081F028F4813099F08230A9F043
:100B500008958730A9F08830C9F08430B1F48091CD
:100B600080008F7D03C0809180008F77809380000C
:100B7000089584B58F7784BD089584B58F7DFBCFAC
:100B80008091B0008F778093B00008958091B0007D
:100B90008F7DF9CF1F93CF93DF93282F30E0F9019A
:100BA000E059F54F8491F901E45AF54FD491F901D8
:100BB000E85BF54FC491CC23A9F0162F81110E9458
:100BC000A105EC2FF0E0EE0FFF1FEC56FA4FA591B8
:100BD000B4918FB7F894EC91111108C0D095DE2331
:100BE000DC938FBFDF91CF911F910895DE2BF8CF5B
:100BF000CF93DF9390E0FC01E45AF54F2491885B9A
:100C0000954FFC0184918823D1F090E0880F991FC3
:100C1000FC01E858FA4FA591B491FC01EC56FA4F4B
:100C2000C591D491623071F49FB7F8943C91822FB2
:100C3000809583238C93E8812E2B28839FBFDF919F
:100C4000CF9108958FB7F894EC912E2B2C938FBFF2
:100C5000F6CF3FB7F8948091220290912302A091A1
:100C60002402B091250226B5A89B05C02F3F19F09C
:100C70000196A11DB11D3FBFBA2FA92F982F88271C
:100C8000BC01CD01620F711D811D911D42E0660FF7
:100C9000771F881F991F4A95D1F708958F929F92C9
:100CA000AF92BF92CF92DF92EF92FF924B015C0125
:100CB0000E9429066B017C010E9429066C197D099E
:100CC0008E099F09683E734081059105A8F321E0D4
:100CD000821A9108A108B10888EEC80E83E0D81ED8
:100CE000E11CF11C81149104A104B10429F7FF90C7
:100CF000EF90DF90CF90BF90AF909F908F9008952E
:100D000085ED8093BC008091BC0084FDFCCF1092E7
:100D10002D0208952091DA01260F3327331F213247
:100D20003105ECF420912D02FC0190E080E02430AC
:100D300069F082E00895A091DA012191AC01465456
:100D40005E4FA40FB52FB11D2C930196861798F313
:100D50008091DA01680F6093DA0180E0089581E004
:100D60000895E0912F0280912E02E81730F4F0E010
:100D7000E656FE4F808190E008958FEF9FEF089533
:100D800090912F0280912E022FEF3FEF981748F499
:100D9000E92FF0E0E656FE4F208130E09F5F909310
:100DA0002F02C901089580912E0290912F02891B74
:100DB000990B0895CF92DF92EF92FF920F931F93BA
:100DC000CF93DF937C01CB018A012091370222234C
:100DD00089F0EB016B01C40ED51ECC15DD0569F061
:100DE0006991D701ED91FC910190F081E02DC7014F
:100DF0000995F3CF642F0E948A06C801DF91CF9135
:100E00001F910F91FF90EF90DF90CF900895CF93B7
:100E1000DF931F92CDB7DEB769832091370222237B
:100E2000F9F020913402203258F021E030E0FC014A
:100E30003383228390E080E00F90DF91CF9108957B
:100E400080913502E82FF0E0E658FE4F99819083BB
:100E50008F5F809335028093340281E090E0ECCF85
:100E600061E0CE0101960E948A06F7CF20913402FC
:100E700081E0213208F044C080912D028111FCCF25
:100E80008091360292E090932D0291E090932C0293
:100E90009FEF9093FD0110921F0220931E02AAE77C
:100EA000B1E0EEEFF1E090E0291331C010922002A2
:100EB00090912002880F892B8093200280912B0231
:100EC000813049F510922B02809120028093BB0063
:100ED0008091BC0083FDF8CF85EC8093BC008091AD
:100EE0002D028230E1F38091FD018F3FB1F08091BE
:100EF000FD018032A1F08091FD01803391F084E00A
:100F000010923502109234021092370208953D91EA
:100F100031939F5FC9CF85EEE0CF80E0F1CF82E0D3
:100F2000EFCF83E0EDCFEF92FF920F931F93CF931C
:100F3000DF93EC01EC80FD806E157F050CF070C036
:100F400057FF04C0240F351F50E040E08E819F8181
:100F5000FA01E20FF31F8E179F071CF49C01241B5C
:100F6000350B121613060CF05BC0922F842F86955A
:100F7000869586958E9DD0018F9DB00D11246A0FA8
:100F80007B1FAF8DB8A1A60FB71F477049F188E04E
:100F9000841B482F682F70E0FB01E059FA4FE49161
:100FA000281708F063C0621B71092FEF30E002C000
:100FB000359527956A95E2F7E2230130110539F05E
:100FC000B0F10230110561F58C91E82702C08C91D7
:100FD000E82BEC93941720F12C813D81A20FB31FD5
:100FE000E92FE41BE83078F00230110521F58E2F4F
:100FF0009C9190959C932C813D81A20FB31F8850AA
:101000008830B0F7E770EE2359F0F0E0E859FA4F76
:10101000E49101301105F9F010F10230110519F1D8
:10102000DF91CF911F910F91FF90EF900895E09580
:101030008C91E823CECF81E00115110509F480E001
:1010400081959E2F8C932C813D81A20FB31F9850C8
:101050009830C0F7D7CF8C91E82BEC93E1CFE09597
:101060008C91E823FACF8C91E827F7CF0130110556
:1010700009F4ADCFE0F20230110509F4A5CFAE0DB1
:10108000BF1DAECF0F931F93CF93DF9377FF04C0A5
:10109000260F371F70E060E0DC011496CD91DC91E3
:1010A000FB01E20FF31FCE17DF071CF49E01261B86
:1010B000370B121613064CF5FA0157FD3796A3E0CD
:1010C000F595E795AA95E1F7EC9FD001ED9FB00D5E
:1010D000FC9FB00D11246A0F7B1FDC015F96ED9120
:1010E000FC91E60FF71F4770552781E090E001C0A3
:1010F000880F4A95EAF7482F0130110559F0A8F0FA
:101100002E0F3F1F02301105E1F0DF91CF911F91AB
:101110000F9108952E0F3F1FE217F307B1F381914E
:10112000DF011197842B8C93F7CF80952E0F3F1FF3
:10113000E217F30751F39191DF01119798239C93E4
:10114000F7CFE217F30709F38191DF0111978427A5
:101150008C93F7CF0F931F93FA01DC0156964C91B5
:1011600056974230E9F04330A1F1413061F51496D1
:101170004D915C91DA01AE1BBF0BFD01E21BF30B3D
:1011800077FD0BC0DC0116964D915C9164177507D5
:1011900024F4AB01BF010E9442081F910F910895F2
:1011A00014964D915C91DA01A61BB70BBD016150FD
:1011B0007109DC0116964D915C91DA01AE1BBF0BF3
:1011C000FD01E21BF30B77FDE8CFAF010E9493070F
:1011D000E4CF16964D915C91DA01A61BB70BBD01C9
:1011E00061507109CDCF0F931F93FA01DC01569620
:1011F0004C9156974230A9F0433091F1413019F5A6
:1012000014964D915C91DA01AE1BBF0BFD01319735
:10121000F7FD04C0AB01BF010E9493071F910F911E
:10122000089514964D915C91DA01A61BB70BBD0190
:10123000DC0116964D915C91DA01AE1BBF0BFD01EE
:101240003197621B730BF7FDE9CFDC0116964D91C8
:101250005C91E417F50714F7AF010E944208DECF56
:1012600016964D915C91DA01A61BB70BBD01621B6E
:10127000730BCECFFC0177FD64C080859185681724
:1012800079070CF05EC057FD5CC0828593854817D6
:1012900059070CF056C086898230B1F0833029F1AD
:1012A000813041F484819581841B950BAB01BC0195
:1012B000615071092130310509F108F443C0223031
:1012C000310509F463C0089584819581DC01A61B72
:1012D000B70BBD016150710986819781DC01A41BA8
:1012E000B50BAD0141505109E5CF86819781861B31
:1012F000970BBA01AC0141505109DCCFCA0157FD2F
:101300000796A3E095958795AA95E1F7A481B58105
:101310008A9F90018B9F300D9A9F300D1124620F90
:10132000731F078CF0A1E02DE60FF71F47705527BC
:1013300021E030E001C0220F4A95EAF78081822B3C
:1013400080830895CA0157FD079633E095958795E8
:101350003A95E1F7A481B5818A9F90018B9F300D6A
:101360009A9F300D1124620F731F078CF0A1E02D9E
:10137000E60FF71F4770552781E090E001C0880F06
:101380004A95EAF7809590818923DACFCA0157FD03
:10139000079623E0959587952A95E1F7A481B58175
:1013A0008A9F90018B9F300D9A9F300D1124620F00
:1013B000731F078CF0A1E02DE60FF71F477055272C
:1013C00021E030E001C0220F4A95EAF780818227B0
:1013D000B7CF08958EBD00000DB407FEFDCF8EB5CA
:1013E0000895FF920F931F93CF93DF93F82ED92F79
:1013F000C62F8091610290916202009709F452C059
:101400002091650231E0309337022093360210922A
:10141000350210923402DC01ED91FC910190F081D3
:10142000E02D60E009950F2D1D2FD1E0FF24F394EE
:10143000C1508091610290916202CF3F61F1D03240
:10144000C8F00E943607809161029091620220915B
:101450006502F09237022093360210923502109204
:101460003402DC01ED91FC910190F081E02D60E00F
:101470000995D1E08091610290916202F801649136
:10148000DC01ED91FC910190F081E02D0995DF5F89
:101490000F5F1F4FCDCFDF91CF911F910F91FF9025
:1014A0000C943607E0917102F09172029081809164
:1014B00077028095892380830F2D1D2FC15008F45A
:1014C00038C0F801849120915F0230916002232B93
:1014D00029F00E94EA090F5F1F4FF0CF28E030E0AB
:1014E00040E8E0916D02F0916E0290917502582FE4
:1014F0005423D9F05081952B9083E0916F02F091A5
:101500007002908150917602952B9083E0916F024A
:10151000F09170025081909176029095952390837E
:10152000469521503109E9F6D6CF50819095952303
:10153000E3CFDF91CF911F910F91FF9008951F93FB
:10154000CF93DF93EC018D8D9E8D009721F1162FA7
:1015500029A131E0309337022093360210923502F0
:1015600010923402DC01ED91FC910190F081E02DAC
:1015700060E009958D8D9E8DDC01ED91FC910190CF
:10158000F081E02D612F09958D8D9E8DDF91CF919A
:101590001F910C943607ADA5BEA59C918BA9809593
:1015A00089238C938B8D9C8D892B31F0862FDF9135
:1015B000CF911F910C94EA0928E030E080E8A9A5BA
:1015C000BAA599A9462F4823C1F04C91942B9C931E
:1015D000ABA5BCA59C914AA9942B9C93ABA5BCA59B
:1015E0004C919AA9909594239C938695215031090A
:1015F00031F7DF91CF911F9108954C9190959423ED
:10160000E6CF8CBD9DBD0895EF92FF920F931F937F
:10161000CF93DF938091610290916202892B09F44C
:1016200093C02091790230917A0240917B025091CF
:101630007C0260E074E284EF90E00E94381920514F
:1016400031094109510956954795379527952093BA
:10165000B80065E084E89AE00E94F10960914802D0
:10166000615084E492E00E949F0A20914A023091E6
:101670004B02C901079697FD079623E0959587953C
:101680002A95E1F72091480230914902829F80011A
:10169000839F100D929F100D1124C0916302D09171
:1016A000640280916102909162020C0F1D1F0097ED
:1016B00009F489C02091650231E03093370220930C
:1016C00036021092350210923402DC01ED91FC9149
:1016D0000190F081E02D60E40995FF24F394EE245D
:1016E000E39480916102909162020C171D0709F446
:1016F00042C0BFE1BF15D0F40E943607809161025D
:101700009091620220916502E092370220933602A6
:101710001092350210923402DC01ED91FC9101909F
:10172000F081E02D60E40995FF24F394809161023B
:10173000909162026991DC01ED91FC910190F08140
:10174000E02D0995F394CDCF80915F0290916002D6
:10175000892B31F080918202909183020E94010BCB
:10176000E0917302F09174029081809178028095EB
:10177000892380836ECF0E94360780916102909109
:101780006202892B09F460C020917D0230917E02B3
:1017900040917F025091800260E074E284EF90E01B
:1017A0000E94381920513109410951095695479530
:1017B000379527952093B800DF91CF911F910F9116
:1017C000FF90EF900895E0917102F0917202808194
:1017D00090917702892B80830C171D0771F28991F4
:1017E00020915F0230916002232B19F00E94EA09D8
:1017F000F3CF28E030E040E8E0916D02F0916E0216
:1018000090917502582F5423D9F05081952B9083D5
:10181000E0916F02F0917002908150917602952BC9
:101820009083E0916F02F091700250819091760266
:10183000909595239083469521503109E9F6CCCFB8
:10184000508190959523E3CFE0917302F09174025B
:10185000808190917802892B8083AECF1F93CF93A4
:10186000DF93EC01162F8D8D9E8D892BB1F12DA963
:101870003EA94FA958AD60E074E284EF90E00E9469
:101880003819205131094109510956954795379525
:1018900027952093B80066EA111167EACE010E94ED
:1018A0009F0A8D8D9E8D892B41F129AD3AAD4BADAF
:1018B0005CAD60E074E284EF90E00E943819205142
:1018C0003109410951095695479537952795209338
:1018D000B800DF91CF911F9108958B8D9C8D892B3E
:1018E00021F08EAD9FAD0E94010BEFA5F8A990816C
:1018F0008CA9809589238083CECFEFA5F8A980811C
:101900009CA9892B8083E5CF0895FC016370668BC9
:101910008481958126813781613039F0633029F0E7
:10192000918780873387228708953187208793871F
:10193000828708952F923F924F925F926F927F928B
:101940008F929F92AF92BF92CF92DF92EF92FF92CF
:101950000F931F93CF93DF93CDB7DEB76A970FB680
:10196000F894DEBF0FBECDBF9A8F898F7A836983CB
:101970004A01D22E18870F833701BC2CDC015996FF
:101980002D913C915A972115310509F015C11896F2
:101990008D919C911997681779070CF0D7C11A9609
:1019A0008D919C91481759070CF0D0C14C2C512CAB
:1019B000B6E0CB9E600D711D11247C876B871616D7
:1019C00017060CF0C3C1EA2DF0E0FA87E98793E02F
:1019D000EE0FFF1F9A95E1F7F88BEF87CF01840F89
:1019E000951F181619060CF0B1C1A98DBA8D58961D
:1019F0008C91811104C0BFEABD1508F4D394A98D60
:101A0000BA8DED91FC9111970284F385E02DCD0103
:101A10000995B5E0DB9EC0011124E981FA81FC83C0
:101A2000EB83312C212C9C0128593F4F388F2F8B71
:101A30004A2D50E05E8B4D8BEF89F88DE20DF31D42
:101A400044919E828D82D12CC12C69817A81620D54
:101A5000731D7A8B698B842F90E09C8B8B8BE98D27
:101A6000FA8DA081B18140FF82C0F1E0BF126FC04A
:101A7000AF126DC01C96ED91FC912F813885A401A9
:101A80004C0D5D1D69897A89898D9A8D0995EB893F
:101A9000FC89F595E7954E2F5FEFC51AD50A6D8144
:101AA0007E818D899E89680F791F7E836D8398E082
:101AB000C916D10481F6AFEF2A1A3A0AEB81FC81EC
:101AC000E40DF51DFC83EB83F5E02F16310409F0DE
:101AD000B3CF2F81388526153705B9F0A98DBA8D7A
:101AE000ED91FC91B1E0BB1257C0AB1255C06981BA
:101AF0007A816B5F7F4F0088F189E02D830128E0B8
:101B000030E0A401898D9A8D0995A98DBA8DED914A
:101B1000FC9111970688F789E02DCD016A960FB6E2
:101B2000F894DEBF0FBECDBFDF91CF911F910F9113
:101B3000FF90EF90DF90CF90BF90AF909F908F90ED
:101B40007F906F905F904F903F902F9009941E96DA
:101B5000ED91FC91EF80F88409851A8592014D8101
:101B60005E816B817C81898D9A8D099590CF2F81C3
:101B700038852615370509F48ACF31E0B31207C03E
:101B8000A31205C01C96ED91FC91930178CF1E968F
:101B9000ED91FC917301E0CF6B857C85641975092B
:101BA0000684F785E02D73010F8518899201A40141
:101BB000898D9A8D0995A9CFF90134969491329720
:101BC00045915491D91AB7E0DB9E400D511D112467
:101BD000F901259134913C8B2B8BFA01259034909F
:101BE000FA013296749031963491398B3296649022
:101BF0003196449041E04C1518F04A1508F07FC02A
:101C0000662D062C000C770B7C836B83842D042CB3
:101C1000000C990B9E838D83A98DBA8DED91FC915B
:101C200011970284F385E02DCD010995512CD12C1B
:101C3000C12CEA2DF0E0FA87E9872B2D30E03C87B4
:101C40002B87A401440D511D47FC5A95588F4F8B8B
:101C500069817A81660D711D67FC7A957E876D8733
:101C60007989C71608F051CF2C2D30E04D815E8167
:101C7000420F531FA985BA854A9FC0014B9F900D03
:101C80005A9F900D1124FC01E80DF91DF88BEF8788
:101C9000852D612C4F89588D420F531F5E8B4D8BC4
:101CA000671408F050C044244394480E877041F4F0
:101CB000C1010196EB89FC89E20DF31DD4901C0152
:101CC000D7FE19C0A98DBA8DED91FC91662D70E0FB
:101CD000B1E0BB1219C0AB1217C02D853E85620F53
:101CE000731F0484F585E02D2F8138854D895E8929
:101CF000898D9A8D0995DD0C6394842DD1CF1E8238
:101D00001D821C821B8288CF4B815C81640F751FF2
:101D1000AB85BC856A9FC0016B9F900D7A9F900D2B
:101D2000112469817A81680F791F0684F785E02D77
:101D3000EF80F88409851A859D014F855889898D22
:101D40009A8D0995D8CF570CC3948ACF6A960FB64F
:101D5000F894DEBF0FBECDBFDF91CF911F910F91E1
:101D6000FF90EF90DF90CF90BF90AF909F908F90BB
:101D70007F906F905F904F903F902F9008958F923B
:101D80009F92AF92CF92EF92FF920F931F93CF93B8
:101D9000DF93EC01262F898D9A8D009709F051C0B1
:101DA0006A30D1F41D861C868D8948E0849F90019D
:101DB00011248E859F85820F931F9F878E8781E0D8
:101DC00090E0DF91CF911F910F91FF90EF90CF9016
:101DD000AF909F908F9008956D3089F3CC88AD8837
:101DE0008F898823C1F08C859D8536E0C39E800D48
:101DF000911D1124488559854817590764F44E856B
:101E00005F851D861C8638E0A39EC0011124840FC7
:101E1000951F9F878E87EA88FB88088919894E85D8
:101E20005F856C857D85CE010E949A0C2C898C85FE
:101E30009D8546E0249F800D911D11249D878C87F0
:101E4000BECF6A3069F41D861C86FC013696E4918B
:101E50002D898E859F85E29F800D911D1124ADCF28
:101E60006D3009F4ACCFFC0134963491631708F45B
:101E7000A6CF3196E491E61708F4A1CFFC01329683
:101E800085909490462F431B342F47E0349F800C5D
:101E9000911C1124F401329634913196E49133234C
:101EA000A9F1EE2399F1CC88F4013596E491AD883F
:101EB0004F89442301F10E2E000CFF0BE30FF11D9F
:101EC000CE9EA001CF9E500D11246C857D85460FBE
:101ED000571F68857985641775076CF44E855F8593
:101EE0001D861C86FC013696E491AE9E400D511D68
:101EF00011245F874E87EA88FB88088919894E85F7
:101F00005F856C857D85CE010E949A0CF401349624
:101F1000E4912C898C859D85E29F800D911D112473
:101F20008DCF6F927F928F929F92AF92BF92CF92FE
:101F3000DF92EF92FF920F931F93CF93DF93EC0109
:101F40006B015A0139014801E881F9810284F38566
:101F5000E02D0995E881F9810288F389E02D870158
:101F60009301A501B601CE010995A501480D591DA2
:101F700041505109E881F9810288F389E02D9301EC
:101F8000B601CE010995E881F9810088F189E02D3B
:101F90009401A501B601CE010995C60CD71CB60166
:101FA00061507109E881F9810088F189E02D94017F
:101FB000A501CE010995E881F9810688F789E02D10
:101FC000CE01DF91CF911F910F91FF90EF90DF90A5
:101FD000CF90BF90AF909F908F907F906F9009941B
:101FE0006F927F928F929F92AF92BF92CF92DF9229
:101FF000EF92FF920F931F93CF93DF935C01EB015E
:102000006A01490138018701DC01ED91FC916217F9
:10201000730719F5641675062CF0962D872D3A0175
:10202000C92ED82E9601261937092F5F3F4F048CF1
:10203000F58DE02DA301BE01C5010995DF91CF917A
:102040001F910F91FF90EF90DF90CF90BF90AF90D6
:102050009F908F907F906F9008954615570591F44B
:102060002617370724F0892D4B01C22FD82F9E0148
:10207000281939092F5F3F4F068CF78DE02DA601F7
:10208000B401DACF0284F385E02D0995D501ED91F5
:10209000FC910488F589E02D83019401A601BE011D
:1020A000C5010995D501ED91FC910688F789E02DD0
:1020B000C501DF91CF911F910F91FF90EF90DF90BD
:1020C000CF90BF90AF909F908F907F906F9009942A
:1020D000EF92FF920F931F93DC011A960D911C91C2
:1020E0001B9718962D913C911997ED91FC9100A0AA
:1020F000F1A1E02D7B0150E040E070E060E0099547
:102100001F910F91FF90EF9008954F925F926F9201
:102110007F928F929F92AF92BF92CF92DF92EF9277
:10212000FF920F931F93CF93DF936C012B015A0102
:1021300039014801DC01ED91FC910284F385E02D29
:102140000995E201640C751CD601ED91FC91C61550
:10215000D7055CF40088F189E02D87019401A50181
:10216000BE01C60109952196EFCF0688F789E02DBB
:10217000C601DF91CF911F910F91FF90EF90DF90FB
:10218000CF90BF90AF909F908F907F906F905F9017
:102190004F9009948F929F92AF92BF92CF92DF920D
:1021A000EF92FF920F931F93CF93DF93EC015B01AC
:1021B0004A016901E881F9810284F385E02D0995DE
:1021C00095012C0D3D1D21503109E881F9810488CC
:1021D000F589E02D78018401A401B501CE010995AE
:1021E000E881F9810688F789E02DCE01DF91CF9152
:1021F0001F910F91FF90EF90DF90CF90BF90AF9025
:102200009F908F9009948F929F92AF92BF92CF929E
:10221000DF92EF92FF920F931F93CF93DF93EC0126
:102220005B014A0169017801E881F9810284F38543
:10223000E02D0995C80CD91C860101501109E881CF
:10224000F9810488F589E02D9501A401B501CE013D
:102250000995E881F9810688F789E02DCE01DF91A3
:10226000CF911F910F91FF90EF90DF90CF90BF9093
:10227000AF909F908F900994EF92FF920F931F93CE
:10228000DC01ED91FC9100A0F1A1E02D09951F91D9
:102290000F91FF90EF9008950F931F93DC01ED9144
:1022A000FC91068CF78DE02D09951F910F910895F3
:1022B0000F931F93DC01ED91FC91048CF58DE02DC3
:1022C00009951F910F910895DC01ED91FC91008417
:1022D000F185E02D09943F924F925F926F927F9229
:1022E0008F929F92AF92BF92CF92DF92EF92FF9226
:1022F0000F931F93CF93DF935C017B014A01690128
:10230000390187E0680E711C93E0759467949A9583
:10231000E1F72B01400E511E10E000E0312CD0E01F
:10232000C0E0CE0187709927330C892B59F4FE0148
:1023300083E0F595E7958A95E1F7E00FF11FE80D49
:10234000F91D349037FE0AC021E030E0A701B50145
:102350006C0F7D1F84E492E00E9464112196CC16DC
:10236000DD06F9F68FEFE81AF80A060D171DE414DA
:10237000F504A9F6DF91CF911F910F91FF90EF9097
:10238000DF90CF90BF90AF909F908F907F906F9095
:102390005F904F903F9008952F923F924F925F929F
:1023A0006F927F928F929F92AF92BF92CF92DF9265
:1023B000EF92FF920F931F93CF93DF9300D000D043
:1023C00000D0CDB7DEB73C016A013E832D83FC828D
:1023D000EB825801A41AB50AB7FE03C0B194A194C8
:1023E000B1088D809E80861A970A97FE03C091944B
:1023F000819491088A149B045CF0902F812F0D81A9
:102400001E819D838E839C2D8D2D6B01692F782FCE
:102410000C151D055CF09D818E817E836D83692F77
:10242000782F902F812F8601C92ED82E1601201AC1
:10243000310A2B012D813E81421A530A57FE03C0F7
:10244000519441945108710137FE03C03FEFE31AE4
:10245000F30AF594E7948D819E81861797075CF5C2
:10246000A1E0B0E0BA83A983C016D1064CF1D30134
:10247000ED91FC910484F585E02D2B813C81A80130
:102480006D817E818A149B041CF04D815E81B801B0
:10249000C3010995E418F508F7FE0AC02D813E81B5
:1024A00089819A81280F391F3E832D83E20CF31C0A
:1024B0000F5F1F4FD9CF2FEF3FEF3A832983D4CF40
:1024C00026960FB6F894DEBF0FBECDBFDF91CF9139
:1024D0001F910F91FF90EF90DF90CF90BF90AF9042
:1024E0009F908F907F906F905F904F903F902F9034
:1024F0000895089590E080E00895FC010190002087
:10250000E9F73197AF01481B590BBC0184E492E015
:102510000C947405CF93DF930E947D12EC0184E448
:1025200091E00E947D128C0F9D1FDF91CF91089545
:1025300020914A0230914B02C901079697FD0796F8
:1025400023E0959587952A95E1F7209148023091EF
:102550004902829FA001839F500D929F500D11242C
:1025600070E060E080916302909164020C948A1A9A
:102570000E94851A1F920F920FB60F9211242F936B
:102580003F938F939F93AF93BF938091300290912D
:102590003102A0913202B09133023091210223E046
:1025A000230F2D3758F50196A11DB11D209321024F
:1025B0008093300290933102A0933202B0933302A1
:1025C0008091220290912302A0912402B0912502D1
:1025D0000196A11DB11D8093220290932302A09326
:1025E0002402B0932502BF91AF919F918F913F91AB
:1025F0002F910F900FBE0F901F90189526E8230F74
:102600000296A11DB11DD2CF1F920F920FB60F924D
:1026100011242F933F934F935F936F937F938F93E7
:102620009F93AF93BF93EF93FF938091B900887FFF
:10263000803609F44AC0F0F5883209F4A7C018F5CD
:10264000803109F49BC0B8F4882309F4F9C08830BC
:1026500009F494C0FF91EF91BF91AF919F918F9139
:102660007F916F915F914F913F912F910F900FBE8E
:102670000F901F901895883109F488C0803251F767
:102680008093FD0114C0803409F49DC040F4803370
:10269000B9F38833F9F68093FD0185ECB0C080353D
:1026A00009F485C0883509F496C0883499F60E94EB
:1026B0008006D0CF883909F48CC038F5883729F0E6
:1026C00050F4883611F0803729F683E080932D028C
:1026D0001092FC0157C0883809F47BC0803919F08A
:1026E000803809F0B7CF8091FC01803208F071C0CA
:1026F000E091FC0181E08E0F8093FC018091BB0092
:10270000F0E0E452FE4F80833DC0803B39F0E0F4BE
:10271000803A09F479C0883A09F09CCF84E080932C
:102720002D021092DB011092DA01E0912902F09162
:102730002A0209958091DA0181110FC081E080930E
:10274000DA011092BA0109C0803C09F4A6CF883C96
:1027500009F4A3CF883B09F07DCFE091DB0181E054
:102760008E0F8093DB01F0E0E654FE4F8081809372
:10277000BB009091DB018091DA0129C08091200299
:102780008093BB0085EC8093BC0064CF90911F02C6
:1027900080911E02981758F5E0911F0281E08E0F7C
:1027A00080931F02F0E0E250FE4F8081E9CFE0917C
:1027B0001F0281E08E0F80931F028091BB00F0E02A
:1027C000E250FE4F808390911F0280911E02981765
:1027D000C8F285E8D8CFE0911F0281E08E0F809388
:1027E0001F028091BB00F0E0E250FE4F8083809199
:1027F0002C0281115CCF81E080932B0284EA8093CC
:10280000BC0010922D0226CF85EC8093BC00109264
:102810002D028091FC01803230F4E091FC01F0E067
:10282000E452FE4F10826091FC0170E0E0912702BB
:10283000F09128028CED91E009951092FC010ACFED
:102840001092FD0134CFA8E3B2E013961C921E92C1
:10285000129748EE53E060E070E014964D935D935C
:102860006D937C9317978AE091E011969C938E93D9
:10287000E4E4F2E01382128220E830E0358324831E
:1028800080E290E0978386833187208793878287D1
:10289000168A158614861786168681E0858B848BAA
:1028A0002FEF3FEF338B228B318B208B878B108E5A
:1028B000128E118E8CE191E091838083148E138EA1
:1028C000B68FA58F10A2178E8FEF84A385A386A342
:1028D00087A380A780E89AE1A6E0B0E085AB96AB3D
:1028E000A7ABB0AF80EA96E8A1E0B0E081AF92AFCD
:1028F000A3AFB4AF80E586AF17AE0895CF93DF9353
:10290000CDB7DEB7A3970FB6F894DEBF0FBECDBF2D
:10291000789484B5826084BD84B5816084BD85B5BA
:10292000826085BD85B5816085BD80916E008160C6
:1029300080936E001092810080918100826080936C
:10294000810080918100816080938100809180006E
:102950008160809380008091B10084608093B10099
:102960008091B00081608093B00080917A00846093
:1029700080937A0080917A00826080937A008091BF
:102980007A00816080937A0080917A0080688093D9
:102990007A001092C10062E082E00E94F805809106
:1029A000630290916402892B11F10E949812209188
:1029B0004A0230914B0280914802909149022132A3
:1029C00031050CF0EDC1B9016052710977FF02C009
:1029D0006F5F7F4F759567958357910997FD0196B6
:1029E00000E210E023E730E04EE955E0ECC1209131
:1029F0004A0230914B02C901079697FD0796B3E052
:102A000095958795BA95E1F7209148023091490252
:102A1000AC01429FC001439F900D529F900D112425
:102A20000E9460199093640280936302892B09F0DD
:102A3000BCCF0E9498121092510210925002109234
:102A400053021092520281E090E0909357028093DB
:102A50005602909355028093540211E0109358024D
:102A60001093590287E491E00E947D1282E08093E6
:102A70005802809359028EE491E00E948A1283E00A
:102A8000809358028093590285E591E00E948A1252
:102A900010935802109359028CE591E00E948A121B
:102AA0000E94040B60ED77E080E090E00E944E060B
:102AB0000E949812109251021092500210925302EA
:102AC00010925202E2E7FAE08491EEE5FAE0149106
:102AD000EAE4FAE0049101117FC388E691E00E94E4
:102AE0008A1220E430E0309351022093500240E1FA
:102AF00050E050935302409352028FE691E00E94BF
:102B00008A128FB7F89420913002309131024091AF
:102B10003202509133028FBF19A28E010F5D1F4FF9
:102B2000CA01B9012AE030E040E050E00E943819C3
:102B3000605DF80162938F01211531054105510552
:102B400079F7309719F0CF010E947D1284E491E06B
:102B50000E947D12EE24E394F12C00E210E020E2CA
:102B600030E050E040E070E060E084E492E00E94F9
:102B7000F00F21E030E044E150E070E060E084E4F8
:102B800092E00E94641121E030E04CEE5FEF70E0D3
:102B900060E084E492E00E94641121E030E050E0C3
:102BA00040E064E170E084E492E00E94641121E07E
:102BB00030E050E040E06CEE7FEF84E492E00E9471
:102BC0006411F12CE12C44244394512C04E110E0D5
:102BD000A8ED6A2E77247A94BDEEAB2EBB24BA946E
:102BE0002FEFE21AF20A32E0430E511CA40CB51C7E
:102BF00021E030E0A801B70184E492E00E94641172
:102C0000882499248E189F0821E030E0A801B4019F
:102C100084E492E00E946411CC24DD24C01AD10A1D
:102C200021E030E0A601B70184E492E00E94641143
:102C300021E030E0A601B40184E492E00E94641136
:102C400021E030E0A701B80184E492E00E94641121
:102C500021E030E0A701B60184E492E00E94641113
:102C600021E030E0A401B80184E492E00E94641104
:102C700021E030E0A401B60184E492E00E946411F6
:102C8000E016F1060CF4B8C2EE24E394F12C04E152
:102C900010E024E130E050E040E060E270E084E4E5
:102CA00092E00E94910F01E010E025E130E046EF54
:102CB0005FEF60E470E084E492E00E9458114AE023
:102CC000A42EB12C22242394312CD12CC12C6AE0C7
:102CD000E62EF12C4CEE5FEF5BA34AA377EF472E75
:102CE00055245A94FFEFCF1ADF0A22E0220E311C3E
:102CF000420C531CEC14FD040CF488C23701660C22
:102D0000771C3FEF631A730A882499248E189F0852
:102D100001E010E09301A401B601605C7F4F84E400
:102D200092E00E9458119301A40160E470E06C19D4
:102D30007D0984E492E00E945811AE14BF04F1F0C2
:102D4000B501605C7F4F01E010E0310142E0641AA0
:102D50007108930188248394912C8C189D08A401F8
:102D600084E492E00E94581160E470E06A197B09E3
:102D70009301A40184E492E00E945811CE14DF0470
:102D80000CF048C2C70157FC08C00197EAA1FBA19B
:102D90003296FBA3EAA34E0E5F1E57017C01A2CF21
:102DA000B9016054710977FF02C06F5F7F4F75955D
:102DB00067958255910997FD019600E410E022E5A0
:102DC00030E04EE757E0959587950E946B118CE3B4
:102DD000809366028091610290916202892B09F4CE
:102DE00005C180914A0290914B02809709F4FCC082
:102DF0008DE38093650210922F0210922E021092A2
:102E000035021092340210922D0281E080932C0240
:102E100010922B0261E082E10E94CA0561E083E129
:102E20000E94CA058091B9008E7F8093B90080917D
:102E3000B9008D7F8093B90088E48093B80085E461
:102E40008093BC0082E795E090932A028093290248
:102E500083E795E0909328028093270280916C028B
:102E600087FD1EC061E00E94F80561E080916C0260
:102E70000E94CA0561E070E080E090E00E944E068A
:102E800060E080916C020E94CA056AE070E080E018
:102E900090E00E944E0661E080916C020E94CA059B
:102EA0008091610290916202892B09F45EC12091A8
:102EB000790230917A0240917B0250917C0260E06D
:102EC00074E284EF90E00E943819205131094109E1
:102ED000510956954795379527952093B80064E09A
:102EE00080E995E00E94F10960914A02615084E412
:102EF00092E00E949F0A64E08CE895E00E94F1094C
:102F00008091660264E1813009F460E184E492E03A
:102F10000E949F0A64E088E895E00E94F1098FE82A
:102F200080938102809148029091490280389105F6
:102F300009F034C180914A0290914B02803491058E
:102F400009F03CC180916602813009F425C18FEC03
:102F50008093810212E16AED84E492E00E949F0A6C
:102F6000612F84E492E00E949F0A61E884E492E089
:102F70000E949F0A6091810284E492E00E949F0A6D
:102F800069ED84E492E00E949F0A8091660261EFFD
:102F9000813009F462E284E492E00E949F0A66E0D4
:102FA00082E895E00E94F1098091610290916202AD
:102FB000892B09F407C120917D0230917E02409156
:102FC0007F025091800260E074E284EF90E00E9402
:102FD00038192051310941095109569547953795BE
:102FE00027952093B80025CD8CE303CF61E0809135
:102FF0006A020E94F80561E080916B020E94F80568
:1030000080916A02082E000C990BFC01E85BF54FD9
:10301000E491F0E0EE0FFF1FEC56FA4F259134914A
:103020003093720220937102FC01E45AF54FE4914F
:10303000E093770280916B02082E000C990BFC0143
:10304000E85BF54FE491F0E0EE0FFF1FEC56FA4F0E
:10305000A591B491B0937402A0937302FC01E45A59
:10306000F54FE491E09378028C91E82BEC938091FA
:103070005F0290916002892B09F434C01FB7F89465
:1030800080912602811127C0E2E5FAE08491E6E60C
:10309000FAE09491E82FF0E0EE0FFF1FE858FA4FA6
:1030A000A591B491EC91E92321F461E08AE00E94BA
:1030B000CA0561E08AE00E94F8058CB580618CBD8C
:1030C0008CB580648CBD61E08DE00E94F80561E004
:1030D0008BE00E94F805809126028F5F8093260284
:1030E0001FBFBCCE61E0809168020E94F80561E0DC
:1030F000809169020E94F80580916802082E000CF8
:10310000990BFC01E85BF54FE491F0E0EE0FFF1F37
:10311000EC56FA4F2591349130936E0220936D0254
:10312000FC01E45AF54FE491E09375028091690245
:10313000082E000C990BFC01E85BF54FE491F0E0E0
:10314000EE0FFF1FEC56FA4FA591B491B0937002A9
:10315000A0936F02FC01E45AF54FE491E0937602EC
:103160008C91E095E823EC9379CE80915F02909169
:103170006002892B31F080918202909183020E943B
:10318000010BE0917302F0917402908180917802BA
:10319000809589238083A3CE8FE9DACE803691058E
:1031A00069F480914A0290914B02409739F48091E2
:1031B0006602813029F08FEA8093810212E0CBCE43
:1031C00080E1FACFE0917302F091740280819091D6
:1031D0007802892B80832DCC81110E94A105E02FDC
:1031E000F0E0EE0FFF1FE25CF54FA591B4918C91DA
:1031F000182309F472CC75CCB7FCF2CC015011093C
:10320000F2E06F0E711CA60CB71CEACCAE14BF0422
:1032100009F096CDEE24E394F12C0AE010E024E1CD
:1032200030E050E040E060E670E084E492E00E942C
:1032300085100E94040B6AE070E080E090E00E943C
:103240004E0680E090E0892B09F432CC0E94000009
:103250002FCC8CE191E090934502809344028091C1
:10326000630290916402009711F00C94FC19089588
:10327000A1E21A2EAA1BBB1BFD010DC0AA1FBB1F7A
:10328000EE1FFF1FA217B307E407F50720F0A21BEC
:10329000B30BE40BF50B661F771F881F991F1A9459
:1032A00069F760957095809590959B01AC01BD0183
:1032B000CF010895EE0FFF1F0590F491E02D0994C2
:1032C0000F931F93CF93DF938230910510F482E028
:1032D00090E0E0918602F091870230E020E0B0E0DB
:1032E000A0E0309799F42115310509F44AC0281B54
:1032F000390B24303105D8F58A819B816115710520
:1033000089F1FB0193838283FE0111C040815181C9
:103310000281138148175907E0F04817590799F4BB
:10332000109761F012960C93129713961C93329695
:10333000CF01DF91CF911F910F91089500938602E5
:1033400010938702F4CF2115310551F0421753072E
:1033500038F0A901DB019A01BD01DF01F801C1CFFD
:10336000EF01F9CF9093870280938602CDCFFE01C3
:10337000E20FF31F819391932250310939832883FF
:10338000D7CF2091840230918502232B41F42091E4
:103390000201309103013093850220938402209131
:1033A0000001309101012115310541F42DB73EB7DF
:1033B0004091040150910501241B350BE0918402DA
:1033C000F0918502E217F307A0F42E1B3F0B28179C
:1033D000390778F0AC014E5F5F4F2417350748F08E
:1033E0004E0F5F1F50938502409384028193919307
:1033F0009FCFF0E0E0E09CCFCF93DF930097E9F020
:10340000FC01329713821282A0918602B09187024A
:10341000ED0130E020E01097A1F420813181820F8E
:10342000931F20918402309185022817390709F0F3
:1034300061C0F0938502E0938402DF91CF910895FB
:10344000EA01CE17DF07E8F54A815B819E0141154D
:103450005105B1F7E901FB83EA8349915991C40F02
:10346000D51FEC17FD0761F4808191810296840FCE
:10347000951FE90199838883828193819B838A8345
:10348000F0E0E0E012968D919C9113970097B9F5CA
:103490002D913C911197CD010296820F931F20919F
:1034A0008402309185022817390739F6309751F593
:1034B0001092870210928602B0938502A093840234
:1034C000BCCFD383C28340815181840F951FC8171D
:1034D000D90761F44E5F5F4F88819981480F591F6A
:1034E000518340838A819B81938382832115310597
:1034F00009F0B0CFF0938702E09386029ECFFD01E2
:10350000DC01C0CF13821282D7CF81E090E0F89423
:103510000C94911ADC0101C06D9341505040E0F7CA
:10352000089515E0C6E4D5E004C0FE010E945A19D2
:0C3530002196C734D107C9F7F894FFCFEB
:10353C00000088028000000000000707DA067A12FB
:10354C007105D306C006B10600000000BF0E74055D
:10355C007A1279123A09710564113C1158114C1107
:10356C00CC117105850C2E0CAA08F3088510681077
:10357C00F00F910F0D0A007465787420310074659A
:10358C0078742032007465787420330048656C6C54
:10359C006F20576F726C6400484920302C30004803
:0A35AC00492036342C20313600008F
:107E0000112484B714BE81FFF0D085E080938100F7
:107E100082E08093C00088E18093C10086E0809377
:107E2000C20080E18093C4008EE0C9D0259A86E02C
:107E300020E33CEF91E0309385002093840096BBD3
:107E4000B09BFECF1D9AA8958150A9F7CC24DD24C4
:107E500088248394B5E0AB2EA1E19A2EF3E0BF2EE7
:107E6000A2D0813461F49FD0082FAFD0023811F036
:107E7000013811F484E001C083E08DD089C08234E0
:107E800011F484E103C0853419F485E0A6D080C0E4
:107E9000853579F488D0E82EFF2485D0082F10E0AE
:107EA000102F00270E291F29000F111F8ED06801E7
:107EB0006FC0863521F484E090D080E0DECF843638
:107EC00009F040C070D06FD0082F6DD080E0C81688
:107ED00080E7D80618F4F601B7BEE895C0E0D1E017
:107EE00062D089930C17E1F7F0E0CF16F0E7DF06D8
:107EF00018F0F601B7BEE89568D007B600FCFDCFD4
:107F0000A601A0E0B1E02C9130E011968C91119780
:107F100090E0982F8827822B932B1296FA010C0160
:107F200087BEE89511244E5F5F4FF1E0A038BF0790
:107F300051F7F601A7BEE89507B600FCFDCF97BE46
:107F4000E89526C08437B1F42ED02DD0F82E2BD052
:107F50003CD0F601EF2C8F010F5F1F4F84911BD097
:107F6000EA94F801C1F70894C11CD11CFA94CF0C13
:107F7000D11C0EC0853739F428D08EE10CD085E9AC
:107F80000AD08FE07ACF813511F488E018D01DD067
:107F900080E101D065CF982F8091C00085FFFCCF94
:107FA0009093C60008958091C00087FFFCCF809118
:107FB000C00084FD01C0A8958091C6000895E0E648
:107FC000F0E098E1908380830895EDDF803219F02E
:107FD00088E0F5DFFFCF84E1DECF1F93182FE3DFCA
:107FE0001150E9F7F2DF1F91089580E0E8DFEE27F6
:047FF000FF270994CA
:027FFE00040479
:0400000300007E007B
:00000001FF
