:100000000C9449000C9471000C9471000C947100D4
:100010000C9471000C9471000C9471000C9471009C
:100020000C9471000C9471000C9471000C9471008C
:100030000C9471000C9471000C9471000C9471007C
:100040000C940A020C9471000C94D8010C94B20127
:100050000C9471000C9471000C9471000C9471005C
:100060000C9471000C94710004040404040404044E
:100070000202020202020303030303030102040853
:100080001020408001020408102001020408102002
:10009000540211241FBECFEFD8E0DEBFCDBF11E068
:1000A000A0E0B1E0E2E7F8E002C005900D92A432D2
:1000B000B107D9F721E0A4E2B1E001C01D92AF3D44
:1000C000B207E1F710E0C9E4D0E004C02197FE01D7
:1000D0000E943104C834D107C9F70E94A1020C94D0
:1000E00037040C940000AF92BF92CF92DF92EF9250
:1000F000FF920F931F93CF93DF936C017B018B01D2
:10010000040F151FEB015E01AE18BF08C017D10721
:1001100059F06991D601ED91FC910190F081E02DAB
:10012000C6010995892B79F7C501DF91CF911F9100
:100130000F91FF90EF90DF90CF90BF90AF90089518
:10014000FC01538D448D252F30E0842F90E0821BDD
:10015000930B541710F0CF96089501970895FC0162
:10016000918D828D981761F0A28DAE0FBF2FB11DBA
:100170005D968C91928D9F5F9F73928F90E0089512
:100180008FEF9FEF0895FC01918D828D981731F0CC
:10019000828DE80FF11D858D90E008958FEF9FEF20
:1001A0000895FC01918D228D892F90E0805C9F4FF6
:1001B000821B91098F73992708958FE291E00E9425
:1001C000D10021E0892B09F420E0822F089580E0FE
:1001D00090E0892B29F00E94DD0081110C94000031
:1001E0000895FC01A48DA80FB92FB11DA35ABF4FCC
:1001F0002C91848D90E001968F739927848FA68926
:10020000B7892C93A089B1898C91837080648C9379
:10021000938D848D981306C00288F389E02D808128
:100220008F7D80830895EF92FF920F931F93CF935A
:10023000DF93EC0181E0888F9B8D8C8D98131AC021
:10024000E889F989808185FF15C09FB7F894EE8908
:10025000FF896083E889F989808183708064808365
:100260009FBF81E090E0DF91CF911F910F91FF90B0
:10027000EF900895F62E0B8D10E00F5F1F4F0F7358
:100280001127E02E8C8D8E110CC00FB607FCFACF13
:10029000E889F989808185FFF5CFCE010E94F100C0
:1002A000F1CFEB8DEC0FFD2FF11DE35AFF4FF082E4
:1002B0009FB7F8940B8FEA89FB8980818062CFCF4A
:1002C000CF93DF93EC01888D8823B9F0AA89BB898D
:1002D000E889F9898C9185FD03C0808186FD0DC078
:1002E0000FB607FCF7CF8C9185FFF2CF808185FF99
:1002F000EDCFCE010E94F100E9CFDF91CF910895BB
:100300003FB7F8948091290190912A01A0912B0187
:10031000B0912C0126B5A89B05C02F3F19F001967E
:10032000A11DB11D3FBFBA2FA92F982F8827BC014F
:10033000CD01620F711D811D911D42E0660F771F77
:10034000881F991F4A95D1F70895FC01019000205C
:10035000E9F73197AF01481B590BBC018FE291E0DF
:100360000C9473001F920F920FB60F9211242F93CB
:100370003F934F935F936F937F938F939F93AF932D
:10038000BF93EF93FF938FE291E00E94F100FF9102
:10039000EF91BF91AF919F918F917F916F915F91FD
:1003A0004F913F912F910F900FBE0F901F90189576
:1003B0001F920F920FB60F9211242F938F939F933A
:1003C000EF93FF93E0913F01F09140018081E09134
:1003D0004501F091460182FD1BC09081809148014A
:1003E0008F5F8F7320914901821741F0E09148019E
:1003F000F0E0E15DFE4F958F80934801FF91EF9112
:100400009F918F912F910F900FBE0F901F90189575
:100410008081F4CF1F920F920FB60F9211242F9369
:100420003F938F939F93AF93BF93809125019091BA
:100430002601A0912701B09128013091240123E0E9
:10044000230F2D3758F50196A11DB11D20932401CE
:100450008093250190932601A0932701B093280152
:100460008091290190912A01A0912B01B0912C013A
:100470000196A11DB11D8093290190932A01A0939B
:100480002B01B0932C01BF91AF919F918F913F9120
:100490002F910F900FBE0F901F90189526E8230FF5
:1004A0000296A11DB11DD2CFEFE2F1E013821282BC
:1004B00088EE93E0A0E0B0E084839583A683B783C1
:1004C00084E091E09183808385EC90E09587848738
:1004D00084EC90E09787868780EC90E0918B808B0E
:1004E00081EC90E0938B828B82EC90E0958B848BF7
:1004F00086EC90E0978B868B118E128E138E148E65
:10050000ACECB1E082E015968C9315978BE01696D3
:100510008C931697EEE7F0E0E4911796EC9317971B
:10052000EAE6F0E0E4911896EC93189740E85EE371
:1005300060E070E01D964D935D936D937C935097B2
:100540000895CF93DF93CDB7DEB7A1970FB6F89498
:10055000DEBF0FBECDBF789484B5826084BD84B504
:10056000816084BD85B5826085BD85B5816085BDAE
:1005700080916E00816080936E0010928100809166
:1005800081008260809381008091810081608093EE
:100590008100809180008160809380008091B10013
:1005A00084608093B1008091B00081608093B0003E
:1005B00080917A00846080937A0080917A008260D2
:1005C00080937A0080917A00816080937A00809194
:1005D0007A00806880937A001092C100E0913F0118
:1005E000F091400182E08083E0913B01F0913C0179
:1005F0001082E0913D01F0913E018FEC80831092DA
:100600004701E0914301F091440186E08083E0914D
:100610004101F0914201808180618083E09141013C
:10062000F0914201808188608083E0914101F091E6
:100630004201808180688083E0914101F091420114
:1006400080818F7D80839AE0892E912CA12CB12C02
:1006500020E0222E20E0322E20E420937C008091A6
:100660007A00806480937A0080917A0086FDFCCFC6
:100670008091780020917900322F282FACE9BFEFCC
:100680000E9422042FEF33E040E050E00E94D203AA
:100690002C593F4F4F4F5F4F30932E0120932D0128
:1006A00082E191E00E94A501C0902D01D0902E0121
:1006B0000D2C000CEE08FF08F7FE5EC06DE28FE225
:1006C00091E00E94130122273327A9012C193D092B
:1006D0004E095F0919A28E010F5D1F4FCA01B901B2
:1006E000A50194010E94F103605DF80162938F01FE
:1006F000211531054105510589F70115110519F03D
:10070000C8010E94A5018EE191E00E94A50181E24D
:1007100091E00E94A5010E9480012B013C0188EE1E
:10072000C82E83E0D82EE12CF12C0E9480016419A0
:10073000750986099709683E734081059105A8F3FC
:10074000F1E0CF1AD108E108F10828EE420E23E0CB
:10075000521E611C711CC114D104E104F10429F77B
:100760002114310409F478CF0E94DD00882309F4B4
:1007700073CF0E94000070CFA701960119A28E01CD
:100780000F5D1F4FCA01B901A50194010E94F10339
:10079000605DF80162938F01211531054105510516
:1007A00089F7ABCF052E97FB1EF400940E94E90356
:1007B00057FD07D00E94F10307FC03D04EF40C94C0
:1007C000E90350954095309521953F4F4F4F5F4F2E
:1007D000089590958095709561957F4F8F4F9F4FAD
:1007E0000895A1E21A2EAA1BBB1BFD010DC0AA1F72
:1007F000BB1FEE1FFF1FA217B307E407F50720F08A
:10080000A21BB30BE40BF50B661F771F881F991F04
:100810001A9469F760957095809590959B01AC014D
:10082000BD01CF010895A29FB001B39FC001A39F56
:10083000700D811D1124911DB29F700D811D112419
:10084000911D08950E941304332312F48A1B9B0BFD
:100850000C942C040E941304B7FF0895821B930B81
:100860000895EE0FFF1F0590F491E02D0994F89480
:02087000FFCFB8
:100872000000000013017300A0006001D100AF006E
:10088200C3004D6F697374757265203D2000202589
:04089200000D0A004B
:107E0000112484B714BE81FFF0D085E080938100F7
:107E100082E08093C00088E18093C10086E0809377
:107E2000C20080E18093C4008EE0C9D0259A86E02C
:107E300020E33CEF91E0309385002093840096BBD3
:107E4000B09BFECF1D9AA8958150A9F7CC24DD24C4
:107E500088248394B5E0AB2EA1E19A2EF3E0BF2EE7
:107E6000A2D0813461F49FD0082FAFD0023811F036
:107E7000013811F484E001C083E08DD089C08234E0
:107E800011F484E103C0853419F485E0A6D080C0E4
:107E9000853579F488D0E82EFF2485D0082F10E0AE
:107EA000102F00270E291F29000F111F8ED06801E7
:107EB0006FC0863521F484E090D080E0DECF843638
:107EC00009F040C070D06FD0082F6DD080E0C81688
:107ED00080E7D80618F4F601B7BEE895C0E0D1E017
:107EE00062D089930C17E1F7F0E0CF16F0E7DF06D8
:107EF00018F0F601B7BEE89568D007B600FCFDCFD4
:107F0000A601A0E0B1E02C9130E011968C91119780
:107F100090E0982F8827822B932B1296FA010C0160
:107F200087BEE89511244E5F5F4FF1E0A038BF0790
:107F300051F7F601A7BEE89507B600FCFDCF97BE46
:107F4000E89526C08437B1F42ED02DD0F82E2BD052
:107F50003CD0F601EF2C8F010F5F1F4F84911BD097
:107F6000EA94F801C1F70894C11CD11CFA94CF0C13
:107F7000D11C0EC0853739F428D08EE10CD085E9AC
:107F80000AD08FE07ACF813511F488E018D01DD067
:107F900080E101D065CF982F8091C00085FFFCCF94
:107FA0009093C60008958091C00087FFFCCF809118
:107FB000C00084FD01C0A8958091C6000895E0E648
:107FC000F0E098E1908380830895EDDF803219F02E
:107FD00088E0F5DFFFCF84E1DECF1F93182FE3DFCA
:107FE0001150E9F7F2DF1F91089580E0E8DFEE27F6
:047FF000FF270994CA
:027FFE00040479
:0400000300007E007B
:00000001FF
