:100000000C9462000C948A000C948A000C948A0070
:100010000C948A000C948A000C948A000C948A0038
:100020000C948A000C948A000C948A000C948A0028
:100030000C948A000C948A000C948A000C948A0018
:100040000C945F040C948A000C942D040C94070407
:100050000C948A000C948A000C948A000C948A00F8
:100060000C948A000C948A000000000024002700F1
:100070002A0000000000250028002B0000000008D6
:10008000000201000003040700000000000000005F
:1000900000000000230026002900040404040404D6
:1000A0000404020202020202030303030303010227
:1000B00004081020408001020408102001020408F6
:1000C0001020A90411241FBECFEFD8E0DEBFCDBFA2
:1000D00011E0A0E0B1E0E4E7F1E102C005900D928B
:1000E000A433B107D9F721E0A4E3B1E001C01D9228
:1000F000AD3EB207E1F710E0C2E6D0E004C02197C0
:10010000FE010E94B208C136D107C9F70E94F60469
:100110000C94B8080C940000CF92DF92EF92FF92FB
:10012000CF93DF93B091E101A0E08111AB2F8091DB
:10013000E20190E0880F991FAC0140575F4FC090DB
:10014000E701D090E801E090E901F090EA0130E0A9
:1001500020E0FA01C591D491E881B90190E080E0F6
:10016000EB23EA130AC02F5F3F4F6C157D058E0508
:100170009F0578F36FEF7FEFCB01DF91CF91FF9079
:10018000EF90DF90CF900895AF92BF92CF92DF9221
:10019000EF92FF920F931F93CF93DF936C017B013C
:1001A0008B01040F151FEB015E01AE18BF08C017CD
:1001B000D10759F06991D601ED91FC910190F08140
:1001C000E02DC6010995892B79F7C501DF91CF9103
:1001D0001F910F91FF90EF90DF90CF90BF90AF9065
:1001E0000895FC01538D448D252F30E0842F90E03D
:1001F000821B930B541710F0CF9608950197089522
:10020000FC01918D828D981761F0A28DAE0FBF2FEA
:10021000B11D5D968C91928D9F5F9F73928F90E040
:1002200008958FEF9FEF0895FC01918D828D9817AF
:1002300031F0828DE80FF11D858D90E008958FEFEC
:100240009FEF0895FC01918D228D892F90E0805CB5
:100250009F4F821B91098F73992708958DE391E039
:100260000E94220121E0892B09F420E0822F0895C9
:1002700080E090E0892B29F00E942E0181110C94DE
:1002800000000895FC01A48DA80FB92FB11DA35A39
:10029000BF4F2C91848D90E001968F739927848FA6
:1002A000A689B7892C93A089B1898C9183708064C9
:1002B0008C93938D848D981306C00288F389E02D6A
:1002C00080818F7D80830895EF92FF920F931F931B
:1002D000CF93DF93EC0181E0888F9B8D8C8D9813F9
:1002E0001AC0E889F989808185FF15C09FB7F89405
:1002F000EE89FF896083E889F98980818370806451
:1003000080839FBF81E090E0DF91CF911F910F919B
:10031000FF90EF900895F62E0B8D10E00F5F1F4FAA
:100320000F731127E02E8C8D8E110CC00FB607FCB9
:10033000FACFE889F989808185FFF5CFCE010E9447
:100340004201F1CFEB8DEC0FFD2FF11DE35AFF4F72
:10035000F0829FB7F8940B8FEA89FB8980818062D5
:10036000CFCFCF93DF93EC01888D8823B9F0AA8992
:10037000BB89E889F9898C9185FD03C0808186FD60
:100380000DC00FB607FCF7CF8C9185FFF2CF8081AF
:1003900085FFEDCFCE010E944201E9CFDF91CF91E1
:1003A0000895CF93DF9390E0FC01E255FF4F249135
:1003B00086569F4FFC0184918823D1F090E0880FEE
:1003C000991FFC01E859FF4FA591B491FC01EE582B
:1003D000FF4FC591D491623071F49FB7F8943C916E
:1003E000822F809583238C93E8812E2B28839FBFB7
:1003F000DF91CF9108958FB7F894EC912E2B2C9329
:100400008FBFF6CF3FB7F8948091350190913601B8
:10041000A0913701B091380126B5A89B05C02F3FA8
:1004200019F00196A11DB11D3FBFBA2FA92F982F1A
:100430008827BC01CD01620F711D811D911D42E015
:10044000660F771F881F991F4A95D1F708958F92DD
:100450009F92AF92BF92CF92DF92EF92FF924B01A9
:100460005C010E9402026B017C010E9402026C1975
:100470007D098E099F09683E734081059105A8F3A7
:1004800021E0821A9108A108B10888EEC80E83E025
:10049000D81EE11CF11C81149104A104B10429F7B8
:1004A000FF90EF90DF90CF90BF90AF909F908F9094
:1004B00008958F929F92AF92BF92EF92FF920F9307
:1004C0001F93CF93DF93CDB7DEB7C054D1400FB6A3
:1004D000F894DEBF0FBECDBF2FB7F89480913901DD
:1004E00090913A01A0913B01B0913C012FBF409106
:1004F000E3015091E4016091E5017091E6018C0106
:100500009D01041B150B260B370BB901A801403DBB
:10051000574061057105A0F48091EB01C05CDE4F8E
:100520000FB6F894DEBF0FBECDBFDF91CF911F9104
:100530000F91FF90EF90BF90AF909F908F90089594
:100540008093E3019093E401A093E501B093E60169
:100550001092DE011092DD011092DC011092DB019D
:100560001092DA0162E08091DF010E94D10161E026
:1005700070E080E090E00E94270261E08091DF015E
:100580000E94D1018091DF0190E0FC01E458FF4F0F
:100590002491FC01E255FF4F3491FC01E656FF4FD8
:1005A000E491EE23D9F0222359F0233009F44BC013
:1005B00008F03EC0213009F44CC0223009F44DC08F
:1005C000F0E0EE0FFF1FEE58FF4FA591B4918FB7EB
:1005D000F894EC9130953E233C938FBF8091E001DD
:1005E0008551823008F046C08BE291E10197F1F726
:1005F00062E08091DF010E94D1018091EC0190E0E6
:100600008230910538F0880F991F880F991F059740
:100610000197F1F7F89480E00E948C006F3F7F4FC4
:100620008F4F9F4F71F51092EB01789480E076CF59
:100630002730B1F02830D1F0243009F0C1CF8091BB
:1006400080008F7D03C0809180008F778093800031
:10065000B7CF84B58F7784BDB3CF84B58F7DFBCF03
:100660008091B0008F778093B000AACF8091B000C6
:100670008F7DF9CF64E170E080E090E00E94270276
:10068000B7CF81E00E948C006F3F7F4F8F4F9F4F0D
:1006900051F2CE0101967C015E019FEBA91A9EEFFB
:1006A000B90A870180E00E948C00F80160837183A1
:1006B0008283938381E00E948C00F80164837583B8
:1006C00086839783085F1F4FA016B10659F7789469
:1006D00030E020E0F70180809180A280B3804481E7
:1006E000558166817781FFEF8F169F06AF06BF06A3
:1006F00031F04F3F0FEF50076007700719F4109269
:10070000EB0194CFF90183E0F595E7958A95E1F740
:10071000E652FE4F8081880F84169506A606B7061E
:1007200018F180832F5F3F4F18E0E10EF11C283253
:10073000310581F64091DE012091DA018091DB01E3
:10074000280F3327331F8091DC01280F311D809142
:10075000DD01820F932F911D99274817190679F60D
:1007600081E08093EB01DACE8160DBCFFC01019068
:100770000020E9F73197AF01481B590BBC018DE30D
:1007800091E00C94C4008F929F92AF92BF920F930E
:100790001F93CF93DF93CDB7DEB7A1970FB6F89431
:1007A000DEBF0FBECDBF19A2423008F44AE08E0171
:1007B0000F5D1F4F842E912CB12CA12CA50194010B
:1007C0000E949008E62FB901CA01EA30F4F4E05D16
:1007D000D801EE938D01232B242B252B79F790E064
:1007E00080E0109719F0CD010E94B603A1960FB6D4
:1007F000F894DEBF0FBECDBFDF91CF911F910F9157
:10080000BF90AF909F908F900895E95CE1CF1F92C9
:100810000F920FB60F9211242F933F934F935F9334
:100820006F937F938F939F93AF93BF93EF93FF93B8
:100830008DE391E00E944201FF91EF91BF91AF9152
:100840009F918F917F916F915F914F913F912F91E8
:100850000F900FBE0F901F9018951F920F920FB61A
:100860000F9211242F938F939F93EF93FF93E09117
:100870004D01F0914E018081E0915301F0915401BE
:1008800082FD1BC09081809156018F5F8F732091F4
:100890005701821741F0E0915601F0E0E35CFE4F12
:1008A000958F80935601FF91EF919F918F912F919A
:1008B0000F900FBE0F901F9018958081F4CF1F925C
:1008C0000F920FB60F9211242F933F938F939F9304
:1008D000AF93BF938091390190913A01A0913B0170
:1008E000B0913C013091340123E0230F2D3758F5AE
:1008F0000196A11DB11D209334018093390190937D
:100900003A01A0933B01B0933C0180913501909155
:100910003601A0913701B09138010196A11DB11D9A
:100920008093350190933601A0933701B09338013D
:10093000BF91AF919F918F913F912F910F900FBEDB
:100940000F901F90189526E8230F0296A11DB11D48
:10095000D2CFEDE3F1E01382128288EE93E0A0E0C3
:10096000B0E084839583A683B78384E091E091838C
:10097000808385EC90E09587848784EC90E097876E
:10098000868780EC90E0918B808B81EC90E0938B5C
:10099000828B82EC90E0958B848B86EC90E0978B39
:1009A000868B118E128E138E148EAAEDB1E082E02A
:1009B00015968C9315978BE016968C931697E0EB13
:1009C000F0E0E4911796EC931797ECE9F0E0E491EE
:1009D0001896EC93189740E85EE360E070E01D968F
:1009E0004D935D936D937C9350970895789484B55F
:1009F000826084BD84B5816084BD85B5826085BD1B
:100A000085B5816085BD80916E00816080936E00A8
:100A1000109281008091810082608093810080919A
:100A2000810081608093810080918000816080934B
:100A300080008091B10084608093B1008091B0000B
:100A400081608093B00080917A00846080937A0006
:100A500080917A00826080937A0080917A00816030
:100A600080937A0080917A00806880937A00109257
:100A7000C100E0914D01F0914E0182E08083E09150
:100A80004901F0914A011082E0914B01F0914C0133
:100A90008FEC808310925501E0915101F091520149
:100AA00086E08083E0914F01F09150018081806168
:100AB0008083E0914F01F0915001808188608083B4
:100AC000E0914F01F0915001808180688083E09136
:100AD0004F01F091500180818F7D808362E0809191
:100AE000DF010E94D1012FB7F894809139019091D4
:100AF0003A01A0913B01B0913C012FBF805D97402E
:100B0000A109B1098093E3019093E401A093E50169
:100B1000B093E60187E38093EC01C0E0D0E00E944F
:100B20005902882341F08091E0018C3009F477C0AC
:100B300048F48B3001F1C12CD12C80ECE82E8FE7EA
:100B4000F82E43C085518230B0F71091DC01612F3F
:100B500070E0762F662766277F778091DD01682B0E
:100B600090E080E00E9467072DEC3CEC4CEC5DE3EC
:100B70000E941E0870C06091DC0170E090E080E08F
:100B80000E9467076B017C011091DD0117FF0AC00D
:100B9000AC019B0160E070E080E89FEB0E94C6061C
:100BA0006B017C011F70612F70E090E080E00E947B
:100BB00069072DEC3CEC4CEC5DE30E941E08A7019C
:100BC00096010E94C7066B017C0182E191E00E94C0
:100BD000B603A7019601C701B6010E948B088823BE
:100BE00009F442C081E291E00E94B6038DE291E0F7
:100BF0000E94B60381E391E00E94B60368EE73E0C1
:100C000080E090E00E942702209709F488CF0E949C
:100C10002E01882309F483CF0E94000080CF109119
:100C2000DC01612F70E090E080E00E9467076B01BB
:100C30007C016091DD016F7070E090E080E00E94C7
:100C400069072DEC3CEC4CEC5DE30E941E08A7010B
:100C500096010E94C7066B017C0117FFB6CFF7FA19
:100C6000F094F7F8F094B1CF46015701E894B7F843
:100C70002FEF3FEF4FE75FE7C501B4010E948B08FC
:100C800081110DC02FEF3FEF4FE75FE7C501B401C2
:100C90000E94330718161CF485E291E0A5CF2FEFD0
:100CA0003FEF4FE75FE4C701B6010E94190818162D
:100CB0001CF489E291E098CF2FEF3FEF4FE75FEC14
:100CC000C701B6010E94330787FDF3CF20E030E073
:100CD000A901C701B6010E94330787FF09C06DE271
:100CE0008DE391E00E946401F7FAF094F7F8F09434
:100CF0002AE037ED43EA5BE3C701B6010E94C7066D
:100D00004B015C010E9438076B017C010E94670760
:100D10009B01AC01C501B4010E94C6064B015C01F8
:100D20004AE0C701B6010E94C3036EE28DE391E081
:100D30000E94640120E030E040E251E4C501B401CA
:100D40000E941E084B015C010E9438076B01F12CC8
:100D5000E12C4AE0C701B6010E94C303C701B601F6
:100D60000E9467079B01AC01C501B4010E94C60641
:100D700020E030E040E251E40E941E080E94380763
:100D800090E080E04AE00E94C30330CF5058BB2778
:100D9000AA270E94DE060C94DF070E94D10738F0D4
:100DA0000E94D80720F039F49F3F19F426F40C94E0
:100DB000CE070EF4E095E7FB0C94C807E92F0E94DC
:100DC000F00758F3BA17620773078407950720F0F6
:100DD00079F4A6F50C9412080EF4E0950B2EBA2FB8
:100DE000A02D0B01B90190010C01CA01A001112431
:100DF000FF27591B99F0593F50F4503E68F11A16DD
:100E0000F040A22F232F342F4427585FF3CF46956D
:100E100037952795A795F0405395C9F77EF41F168F
:100E2000BA0B620B730B840BBAF09150A1F0FF0F59
:100E3000BB1F661F771F881FC2F70EC0BA0F621F45
:100E4000731F841F48F4879577956795B795F79535
:100E50009E3F08F0B0CF9395880F08F09927EE0FCA
:100E60009795879508950E94A40708F481E0089556
:100E70000E94F80788F09F5798F0B92F9927B7512B
:100E8000B0F0E1F0660F771F881F991F1AF0BA952E
:100E9000C9F714C0B13091F00E941208B1E0089572
:100EA0000C941208672F782F8827B85F39F0B93F64
:100EB000CCF3869577956795B395D9F73EF49095E1
:100EC0008095709561957F4F8F4F9F4F0895E8945F
:100ED00009C097FB3EF490958095709561957F4F82
:100EE0008F4F9F4F9923A9F0F92F96E9BB27939530
:100EF000F695879577956795B795F111F8CFFAF440
:100F0000BB0F11F460FF1BC06F5F7F4F8F4F9F4F70
:100F100016C0882311F096E911C0772321F09EE8CE
:100F2000872F762F05C0662371F096E8862F70E034
:100F300060E02AF09A95660F771F881FDAF7880F0E
:100F40009695879597F90895990F0008550FAA0B64
:100F5000E0E8FEEF16161706E807F907C0F01216CC
:100F60001306E407F50798F0621B730B840B950BCF
:100F700039F40A2661F0232B242B252B21F4089524
:100F80000A2609F4A140A6958FEF811D811D0895C1
:100F900097F99F6780E870E060E008959FEF80EC2C
:100FA000089500240A9416161706180609060895CF
:100FB00000240A9412161306140605060895092E35
:100FC0000394000C11F4882352F0BB0F40F4BF2BA4
:100FD00011F460FF04C06F5F7F4F8F4F9F4F0895E4
:100FE00057FD9058440F551F59F05F3F71F04795DA
:100FF000880F97FB991F61F09F3F79F087950895BF
:10100000121613061406551FF2CF4695F1DF08C0DD
:10101000161617061806991FF1CF869571056105FA
:1010200008940895E894BB2766277727CB0197F9A2
:1010300008950E94A40708F48FEF08950E943108D4
:101040000C94DF070E94D10738F00E94D80720F0E7
:10105000952311F00C94C8070C94CE0711240C941E
:1010600013080E94F00770F3959FC1F3950F50E0AD
:10107000551F629FF001729FBB27F00DB11D639F4A
:10108000AA27F00DB11DAA1F649F6627B00DA11DF0
:10109000661F829F2227B00DA11D621F739FB00D96
:1010A000A11D621F839FA00D611D221F749F332706
:1010B000A00D611D231F849F600D211D822F762F9F
:1010C0006A2F11249F5750409AF0F1F088234AF07C
:1010D000EE0FFF1FBB1F661F771F881F91505040E8
:1010E000A9F79E3F510580F00C94C8070C94130893
:1010F0005F3FE4F3983ED4F3869577956795B7956F
:10110000F795E7959F5FC1F7FE2B880F911D969588
:10111000879597F908950E94A407880B990B089565
:10112000A1E21A2EAA1BBB1BFD010DC0AA1FBB1FEB
:10113000EE1FFF1FA217B307E407F50720F0A21B5D
:10114000B30BE40BF50B661F771F881F991F1A94CA
:1011500069F760957095809590959B01AC01BD01F4
:10116000CF010895EE0FFF1F0590F491E02D099433
:04117000F894FFCF21
:10117400000000006401C400F100B101220100017B
:10118400140174656D7065726174757265203D201B
:10119400006E616E00696E66006F766600202A43F9
:0411A400000D0A0030
:00000001FF
