:100000000C9402020C942A020C942A020C94F0170D
:100010000C94F0170C94F0170C942A020C942A02FA
:100020000C942A020C942A020C942A020C942A02A0
:100030000C942A020C942A020C942A020C942A0290
:100040000C94A6170C942A020C9474170C944E1757
:100050000C942A020C942A020C942A020C942A0270
:100060000C942A020C942A025D2000427566666593
:1000700072206F766572666C6F770041542B43492E
:1000800050434C4F53453D002C0041542B434950A5
:1000900053454E443D00626C6E6B696E660076653A
:1000A0007200302E362E3100682D62656174003189
:1000B0003000627566662D696E0032353600646503
:1000C000760041726475696E6F20556E6F006370C3
:1000D000750041546D6567613332385000636F6E4F
:1000E0000045535038323636006275696C64004AF8
:1000F000756E20313620323032302031383A34308B
:100100003A303300000000000000240027002A00DD
:1001100041542B43494653520041542B43574D4FB2
:1001200044453D0041542B43574D4F44453F00410A
:10013000542B4349504D55583D0041542B474D5287
:1001400000415445004154004661696C6564207467
:100150006F20636F6E6E6563742057694669004354
:100160006F6E6E656374656420746F2057694669AD
:10017000004661696C656420746F20736574205358
:100180005441206D6F6465004661696C656420743C
:100190006F20656E61626C65204D5558004661693F
:1001A0006C656420746F2064697361626C652045BE
:1001B00063686F00455350206973206E6F7420721E
:1001C0006573706F6E64696E6700436F6E6E656312
:1001D00074696E6720746F20000D0A202020205F54
:1001E0005F5F20205F5F2020202020202020202013
:1001F0005F5F0D0A2020202F205F20292F202F5FF6
:10020000205F5F5F5F5F20202F202F5F5F0D0A2040
:10021000202F205F20202F202F202F2F202F205F06
:10022000205C2F2020275F2F0D0A202F5F5F5F5F4C
:100230002F5F2F5C5F2C202F5F2F2F5F2F5F2F5C96
:100240005F5C0D0A20202020202020202F5F5F5F90
:100250002F2076302E362E31206F6E20417264753D
:10026000696E6F20556E6F0D0A006D73292E005256
:1002700065616479202870696E673A20000000008B
:100280000800020100000304070000000000000055
:10029000002D022D022D022D022D022D022D022DE8
:1002A000022D022D022D022D022D022D022D022DD6
:1002B000022D022D022D022D022D022D022D022DC6
:1002C000022D022D022D022D022D022D022D022DB6
:1002D000022C022C022C022C022C022C022C022CAE
:1002E000022C022C022C022C022C022C022C022C9E
:1002F000022C022C022C022C022C022C022C022C8E
:10030000022C022C022C022C022C022C022C022C7D
:1003100002496E76616C696420485720636D643AC7
:1003200020005365727665723A20005265646972E6
:10033000656374696E6720746F200052656164792B
:10034000005061636B657420746F6F206269673A57
:100350002000436F6E6E656374206661696C65642E
:100360002E20636F64653A2000496E76616C696483
:10037000206175746820746F6B656E004C6F6769DF
:100380006E2074696D656F75740048656172746282
:100390006561742074696D656F7574002200222C8C
:1003A000220041542B43574A41503D2200222C0049
:1003B000222C22002C220041542B434950535441FB
:1003C00052543D00000000002300260029000000D8
:1003D0000000250028002B00040404040404040485
:1003E00002020202020203030303030301020408E0
:1003F000102040800102040810200102040810208F
:1004000068181C1E11241FBECFEFD8E0DEBFCDBF81
:1004100012E0A0E0B1E0E6E3F3E402C005900D9243
:10042000A031B107D9F724E0A0E1B2E001C01D92EC
:10043000AF38B207E1F712E0C1E0D2E004C0219783
:10044000FE010E947E20C030D107C9F70E947D19AD
:100450000C948E210C940000089508950895DB01FA
:1004600014964D915C9115976D917C91DC01ED9105
:10047000FC910280F381E02D0994EF92FF920F939B
:100480001F93CF93DF938C017B01D0E0C0E0F70195
:10049000EC0FFD1F6491662361F0D801ED91FC9192
:1004A0000190F081E02DC8010995892B11F021966A
:1004B000EECFCE01DF91CF911F910F91FF90EF9082
:1004C0000895AF92BF92CF92DF92EF92FF920F9377
:1004D0001F93CF93DF936C017B018B01040F151FDA
:1004E000EB015E01AE18BF08C017D10759F0699142
:1004F000D601ED91FC910190F081E02DC6010995A6
:10050000892B79F7C501DF91CF911F910F91FF9052
:10051000EF90DF90CF90BF90AF900895FC01538D86
:10052000448D252F30E0842F90E0821B930B5417CD
:1005300010F0CF96089501970895FC01918D828D5A
:10054000981761F0A28DAE0FBF2FB11D5D968C91F3
:10055000928D9F5F9F73928F90E008958FEF9FEF32
:100560000895FC01918D828D981731F0828DE80FEE
:10057000F11D858D90E008958FEF9FEF0895FC01A8
:10058000918D228D892F90E0805C9F4F821B910975
:100590008F73992708958DE592E00E94BF0221E0B4
:1005A000892B09F420E0822F089580E090E0892BC8
:1005B00029F00E94CB0281110C9400000895FC01E7
:1005C000A48DA80FB92FB11DA35ABF4F2C91848DB4
:1005D00090E001968F739927848FA689B7892C9311
:1005E000A089B1898C91837080648C93938D848D64
:1005F000981306C00288F389E02D80818F7D808367
:100600000895EF92FF920F931F93CF93DF93EC0126
:1006100081E0888F9B8D8C8D98131AC0E889F989A9
:10062000808185FF15C09FB7F894EE89FF896083AC
:10063000E889F98980818370806480839FBF81E02D
:1006400090E0DF91CF911F910F91FF90EF9008956F
:10065000F62E0B8D10E00F5F1F4F0F731127E02E4A
:100660008C8D8E110CC00FB607FCFACFE889F98982
:10067000808185FFF5CFCE010E94DF02F1CFEB8DA7
:10068000EC0FFD2FF11DE35AFF4FF0829FB7F89456
:100690000B8FEA89FB8980818062CFCFCF93DF9374
:1006A000EC01888D8823B9F0AA89BB89E889F9898A
:1006B0008C9185FD03C0808186FD0DC00FB607FCBF
:1006C000F7CF8C9185FFF2CF808185FFEDCFCE01F2
:1006D0000E94DF02E9CFDF91CF910895833081F04E
:1006E00028F4813099F08230A9F008958730A9F07C
:1006F0008830C9F08430B1F4809180008F7D03C0D0
:10070000809180008F7780938000089584B58F77E3
:1007100084BD089584B58F7DFBCF8091B0008F7725
:100720008093B00008958091B0008F7DF9CF1F9322
:10073000CF93DF93282F30E0F901E358FD4F8491E8
:10074000F901E451FC4FD491F901E852FC4FC491F6
:10075000CC23A9F0162F81110E946E03EC2FF0E03C
:10076000EE0FFF1FE253FC4FA591B4918FB7F894A1
:10077000EC91111108C0D095DE23DC938FBFDF917F
:10078000CF911F910895DE2BF8CFCF93DF9390E0A8
:10079000FC01E451FC4F249188529C4FFC01849150
:1007A0008823C9F090E0880F991FFC01EA5FFE4F93
:1007B000A591B491FC01E253FC4FC591D491611114
:1007C0000DC09FB7F8948C91209582238C938881DB
:1007D000282328839FBFDF91CF910895623051F481
:1007E0009FB7F8943C91822F809583238C93E88166
:1007F0002E2BEFCF8FB7F894EC912E2B2C938FBF2D
:10080000EACF3FB7F8948091550290915602A0919B
:100810005702B091580226B5A89B05C02F3F19F08A
:100820000196A11DB11D3FBFBA2FA92F982F882770
:10083000BC01CD01620F711D811D911D42E0660F4B
:10084000771F881F991F4A95D1F708958F929F921D
:10085000AF92BF92CF92DF92EF92FF926B017C0139
:100860000E9401044B015C01C114D104E104F104B4
:10087000B9F00E940104681979098A099B09683E48
:1008800073408105910580F321E0C21AD108E10887
:10089000F10888EE880E83E0981EA11CB11CE4CFFD
:1008A000FF90EF90DF90CF90BF90AF909F908F9090
:1008B00008952FB7F894609151027091520280917F
:1008C0005302909154022FBF089520915B02309102
:1008D0005C022817390771F49091590280915A02ED
:1008E000981741F0E0915902F0E0E05FFD4F808100
:1008F00090E008958FEF9FEF0895EF92FF920F938E
:100900001F93CF93DF93DC015C96ED90FC905D9795
:10091000E114F10479F481E090E013969C938E93B6
:10092000129790E080E0DF91CF911F910F91FF909F
:10093000EF9008955196ED91FC91529750968C91BD
:100940005097982F90950FB75E962C915E97122F27
:10095000127021FD6095F8942081112319F1282B44
:100960002083E7012197F1F728E0462F50E03081FE
:1009700060FF1AC0382B3083E7012197F1F7BA01E5
:1009800075956795215089F7112381F0808189231E
:1009900080830FBF5C968D919C910197F1F781E068
:1009A00090E0C1CF2923DCCF3923E5CF9081892B7B
:1009B000EFCF20915B0230915C022817390771F468
:1009C00080915A022091590290E0805C9F4F821BD7
:1009D000910960E470E00E943420089590E080E086
:1009E000089520915B0230915C0228173907B9F411
:1009F0009091590280915A02981789F0E09159021A
:100A0000F0E0E05FFD4F80812091590230E02F5FE0
:100A10003F4F2F7333272093590290E008958FEFB3
:100A20009FEF0895DC01ED91FC910280F381E02DB0
:100A30000994DC01AB5BBF4FEC9121E02E0F2C93AE
:100A4000E80FF92FF11D6583203438F0DC01ED91BA
:100A5000FC910680F781E02D099581E090E00895F2
:100A600090E080E00895FB0101900020E9F73197C4
:100A7000AF01461B570BDC01ED91FC910280F38125
:100A8000E02D09948F929F92AF92BF92EF92FF92C6
:100A90000F931F93CF93DF93CDB7DEB7A1970FB618
:100AA000F894DEBF0FBECDBF7C01FA01CB0119A2C5
:100AB000223008F42AE08E010F5D1F4F822E912C08
:100AC000B12CA12CBF01A50194010E944820F9017D
:100AD000CA016A300CF5605DD8016E938D01232B3D
:100AE000242B252B79F790E080E0109721F0BD01B1
:100AF000C7010E943305A1960FB6F894DEBF0FBE62
:100B0000CDBFDF91CF911F910F91FF90EF90BF90DC
:100B1000AF909F908F900895695CDECF0F931F93E5
:100B2000CF93DF93EC01462F50E070E060E02AE0C5
:100B30000E9442058C016DED71E0CE010E943305EB
:100B4000800F911FDF91CF911F910F910895CF9347
:100B5000DF93AC0170E060E02AE08DE592E00E9456
:100B60004205EC016DED71E08DE592E00E943305E8
:100B70008C0F9D1FDF91CF9108956BE58DE592E07D
:100B80000E9401030E945904AB01BC012AE08DE5DB
:100B900092E00E94420568E670E08DE592E00C94D8
:100BA0003D020F931F93CF93DF93EC010E94330517
:100BB0008C016DED71E0CE010E943305800F911F15
:100BC000DF91CF911F910F9108950F931F93CF93B2
:100BD000DF93EC010E943D028C016DED71E0CE01CE
:100BE0000E943305800F911FDF91CF911F910F91CC
:100BF00008958F929F92AF92BF92EF92FF920F93C0
:100C00001F93CF93DF934A015B01E901813009F023
:100C100068C079018BEFE81A8EEFF80AD7018D9141
:100C20009C9189010D5F1E4FF80120813181821B4B
:100C3000930B181619060CF093950197092E000CCA
:100C4000AA0BBB0B88159905AA05BB0590F40E9459
:100C5000BD056BE670E08DE592E0DF91CF911F91CD
:100C60000F91FF90EF90BF90AF909F908F900C945A
:100C7000E50581149104A104B10499F1E881F98199
:100C800080819181DC01ED91FC910084F185E02D62
:100C90000995892B71F3E881F98180819181DC01CB
:100CA000ED91FC910284F385E02D0995F8014081D6
:100CB00051819A012F5F3F4F3327D7016D917C916E
:100CC00026173707D1F34C0F5D1FFA018383D80134
:100CD00011963C932E93B1E08B1A9108A108B108AC
:100CE000C8CFDF91CF911F910F91FF90EF90BF90F0
:100CF000AF909F908F900895DC01ED91FC9111973A
:100D0000309761F012962D913C911397E217F307FB
:100D100028F401900020E9F7ED93FC930895FC017D
:100D200080819181009739F0228133818217930766
:100D300010F40C945D1F90E080E00895FC01808128
:100D40009181009711F00C947B1F60E070E0CB0163
:100D50000895CF93DF93DC0114962D913C91159764
:100D6000232B79F0FB01CD91DC9160817181CE0163
:100D70000E947421009729F08C1B9D0BDF91CF916D
:100D800008958FEF9FEFFACF0F931F93CF93DF93C9
:100D90008C01EB01FC01808191810097E1F0688179
:100DA000798161157105A9F0428153812C813D81C2
:100DB0004217530770F00E945E218C819D81F801DB
:100DC000958384831D821C82DF91CF911F910F91A7
:100DD00008950E94D41E88819981F80191838083AF
:100DE0008A819B81938382838C819D819583848377
:100DF000198218821B821A82E5CFCF93DF93EC0110
:100E000088819981009711F00E94D41E198218825E
:100E10001D821C821B821A82DF91CF910895FC01F2
:100E200080819181009711F00C94D41E08950F9346
:100E30001F93CF93DF93EC0188819981009759F03C
:100E40002A813B812617370730F081E0DF91CF916F
:100E50001F910F9108958B016F5F7F4F0E94842037
:100E6000009759F0998388831B830A832C813D81E5
:100E7000232B59F7FC011082E8CF80E0E7CFEF92F7
:100E8000FF920F931F93CF93DF9300D0CDB7DEB7C0
:100E90008C0169831A82FC01E480F580FFEFEF1A70
:100EA000FF0AB7010E941707882381F0F80120810B
:100EB000318184819581BE016F5F7F4F820F931FC7
:100EC0000E945E21F801F582E48281E00F900F908C
:100ED000DF91CF911F910F91FF90EF900895EF92C6
:100EE000FF920F931F93CF93DF93EC017B018A0155
:100EF000BA010E94170781110BC0CE010E94FD06A6
:100F0000CE01DF91CF911F910F91FF90EF90089547
:100F10001D830C83B701888199810E945E21F0CFE7
:100F2000FB0101900020E9F73197AF01461B570BF9
:100F30000C946F07CF93DF93EC01FB0186179707A3
:100F400049F0608171816115710541F044815581DD
:100F50000E946F07CE01DF91CF9108950E94FD0698
:100F6000F9CFFC0111821082138212821582148241
:100F70000C949A07FC01118210821382128215824E
:100F800014826115710551F0FB0101900020E9F711
:100F90003197AF01461B570B0C946F070895AF9222
:100FA000BF92CF92DF92EF92FF920F931F93CF9356
:100FB000DF936C015B017A0189012417350720F466
:100FC0008F2D7901042F182F6FED71E0C6010E945B
:100FD000BA07D5011496CD91DC91EC16FD06E0F42C
:100FE0000C171D0708F4E801D501ED91FC9111974C
:100FF000EC0FFD1F108110826D917C916E0D7F1D95
:10100000C60161157105A1F00E949007F50180816C
:101010009181C80FD91F1883C601DF91CF911F910D
:101020000F91FF90EF90DF90CF90BF90AF90089519
:101030000E94FD06EBCF2F923F924F925F926F92EC
:101040007F928F929F92AF92BF92CF92DF92EF9258
:10105000FF920F931F93CF93DF9300D000D000D067
:10106000CDB7DEB71C015B0163E771E0CE010196ED
:101070000E94BA07BE016F5F7F4FC5010E94A9069B
:101080007C01CE0101960E940F072FEFE216F206B7
:10109000F9F4A12CB12C00E010E0B501C8012696AE
:1010A0000FB6F894DEBF0FBECDBFDF91CF911F9179
:1010B0000F91FF90EF90DF90CF90BF90AF909F90F7
:1010C0008F907F906F905F904F903F902F900895FA
:1010D00085E0E80EF11CD50114960D911C91159731
:1010E000E016F10670F48D909C906AE370E0C40104
:1010F0008E0D9F1D0E944A216C01C818D908892BAA
:1011000019F4CC24CA94DC2C26010D2C000C6608A2
:101110007708BFEF4B165B066B067B0609F4B9CF69
:10112000E016F10678F4F501808091806CE270E0C1
:10113000C4018E0D9F1D0E944A218C0108191909B6
:10114000892B11F40FEF1FEFC801012E000CAA0B21
:10115000BB0B8F3FFFEF9F07AF07BF0709F445C0E9
:1011600084159505A605B7050CF03FC09801A701A9
:10117000B501CE0101960E94CF07CE0101960E94D3
:101180009E06962ECE0101960E940F0724E0291597
:1011900008F47FCFA8014F5F5F4F9601B501CE01E4
:1011A00001960E94CF07CE0101960E949E066B0118
:1011B0007C01CE0101960E940F07892D1C141D048D
:1011C0001E041F040CF065CFD1011296ED91FC9125
:1011D000139756018701309709F45FCF14962D912C
:1011E0003C91A601B701099558CF9601A701B50119
:1011F000CE0101960E94CF07CE0101960E949E0665
:101200006B017C01CE0101960E940F071C141D0486
:101210001E041F040CF03DCF8FEFD6CF2F923F92CC
:101220004F925F926F927F928F929F92AF92BF92F6
:10123000CF92DF92EF92FF920F931F93CF93DF93A2
:1012400000D000D0CDB7DEB79C838B836B015A836F
:1012500049831901270138016FED71E00E94BA0737
:101260000E9459044B015C010E94590468197909D4
:101270008A099B096415750586059705E8F5D60169
:101280008D919C91DC01ED91FC910084F185E02D24
:1012900009951816190644F7F60180819181DC0141
:1012A000ED91FC910284F385E02D0995882339F3B3
:1012B000682F8B819C810E943F0769817A818B8195
:1012C0009C810E94A9060196B9F4B1018B819C8191
:1012D0000E94A906019681F46B817C81C6010E945F
:1012E0001B08672B682B692B51F26FED71E08B8126
:1012F0009C810E949007C3CF8B819C810F900F909F
:101300000F900F90DF91CF911F910F91FF90EF9071
:10131000DF90CF90BF90AF909F908F907F906F9015
:101320005F904F903F902F9008954F925F926F92F1
:101330007F928F929F92AF92BF92CF92DF92EF9265
:10134000FF920F931F93CF93DF93EC017B016A0110
:10135000280139016FED71E00E94BA070E9459041B
:101360004B015C010E945904681979098A099B099B
:10137000641575058605970588F5D7018D919C91B3
:10138000DC01ED91FC910084F185E02D09951816A2
:10139000190644F7F70180819181DC01ED91FC9100
:1013A0000284F385E02D0995882339F3682FCE0157
:1013B0000E943F07B601CE010E94A906019671F472
:1013C000BE01C7010E941B08672B682B692BA9F27D
:1013D0006FED71E0CE010E949007CFCFCE01DF917B
:1013E000CF911F910F91FF90EF90DF90CF90BF9022
:1013F000AF909F908F907F906F905F904F900895E7
:101400002F923F924F925F926F927F928F929F9214
:10141000AF92BF92CF92DF92EF92FF920F931F9302
:10142000CF93DF93CDB7DEB762970FB6F894DEBFE8
:101430000FBECDBF2C013B014A01190158016FEDD0
:1014400071E0CE010D960E94BA07B301CE0101965C
:101450000E94B10797018601AE014F5F5F4FB20155
:10146000CE0107960E949509BE01695F7F4FCE01AC
:101470000D960E94C406CE0107960E940F07CE016A
:1014800001960E940F07B301CE010D960E94A90696
:10149000019609F4B3C0B401CE010D960E94A906CD
:1014A0006C01990FEE08FF08B101CE010D960E9464
:1014B000A9069C01092E000CAA0BBB0B4FEFC4160A
:1014C000D406E406F40609F43FC08F3F9F4FAF4FA8
:1014D000BF4F09F441C0F40184819581B701A60191
:1014E000480F591F611D711DBE01635F7F4FCE0103
:1014F00001960E94CF07BE016F5F7F4FC5010E941A
:10150000C406CE0101960E940F0711E0CE010D9690
:101510000E940F07812F62960FB6F894DEBF0FBEB0
:10152000CDBFDF91CF911F910F91FF90EF90DF9092
:10153000CF90BF90AF909F908F907F906F905F9073
:101540004F903F902F9008958F3F9F4FAF4FBF4FC9
:1015500019F050E040E0C8CF69E771E0CE01019694
:101560000E94BA07BE016F5F7F4FC5010E94A906A6
:101570007C01CE0101960E940F072FEFE216F206C2
:10158000A1F0970150E040E0BE01635F7F4FCE01C4
:1015900001960E94CF07BE016F5F7F4FC5010E9479
:1015A000C406CE0101960E940F076BE771E0CE01E1
:1015B00001960E94BA07BE016F5F7F4FC5010E946E
:1015C000A9067C01CE0101960E940F074FEFE41699
:1015D000F406A1F0970150E040E0BE01635F7F4F49
:1015E000CE0101960E94CF07BE016F5F7F4FC501FC
:1015F0000E94C406CE0101960E940F07BE01635FE0
:101600007F4FC5010E949A0710E080CF8F929F9272
:10161000AF92BF92CF92DF92EF92FF920F931F9300
:10162000CF93DF93CDB7DEB762970FB6F894DEBFE6
:101630000FBECDBF6C017B0149015A016FED71E016
:10164000CE010D960E94BA07B701CE0101960E9405
:10165000B10795018401AE014F5F5F4FB601CE0126
:1016600007960E949509BE01695F7F4FCE010D96D6
:101670000E94C406CE0107960E940F07CE01019674
:101680000E940F07B701CE010D960E94A9067C01AA
:10169000CE010D960E940F0781E0EF20E09409F43F
:1016A00080E062960FB6F894DEBF0FBECDBFDF912B
:1016B000CF911F910F91FF90EF90DF90CF90BF904F
:1016C000AF909F908F900895CF92DF92EF92FF920C
:1016D0000F931F93CF93DF9300D000D000D0CDB7EE
:1016E000DEB78C016FED71E0CE0101960E94BA0762
:1016F0000E9459046B017C010E9459046C197D09F8
:101700008E099F096A3071058105910570F5D80130
:101710008D919C91DC01ED91FC910084F185E02D8F
:101720000995892B49F3F80180819181DC01ED91C4
:10173000FC910284F385E02D09958823E9F2682F56
:10174000CE0101960E943F07BE016F5F7F4FC80127
:101750000E941B08672B682B692B51F26FED71E01B
:10176000CE0101960E949007C3CFCE0101960E9440
:101770000F0726960FB6F894DEBF0FBECDBFDF91E0
:10178000CF911F910F91FF90EF90DF90CF90089530
:101790008F929F92AF92BF92CF92DF92EF92FF9281
:1017A0000F931F93CF93DF93CDB7DEB7AA970FB6F2
:1017B000F894DEBF0FBECDBF8C0149015A01CE01A6
:1017C0004F960E94B10760E871E0CE0185960E94B5
:1017D000BA076FED71E0CE0149960E94BA07C801C1
:1017E0000E94640B67EB73E0D8018D919C910E947D
:1017F0003D022AE041E050E060E070E0F8018081C5
:1018000091810E94420564EB73E0D8018D919C9117
:101810000E943D02BE016B5D7F4FF8018081918186
:101820000E942F0260EB73E0D8018D919C910E9481
:101830003D02BE01615E7F4FF801808191810E946F
:101840002F026DEA73E0D8018D919C910E943D02B8
:10185000F801E080F1802AE0B501A401C7010E94EF
:1018600042056DED71E0C7010E94330564E871E047
:10187000CE010D960E94BA0764E971E0CE01079689
:101880000E94BA076DE771E0CE0101960E94BA0787
:101890006FED71E0CE0143960E94BA070E94590491
:1018A0006B017C010E9459046C197D098E099F0906
:1018B000603177428105910508F04BC0D8018D91C8
:1018C0009C91DC01ED91FC910084F185E02D09955E
:1018D000181619063CF7F80180819181DC01ED9121
:1018E000FC910284F385E02D0995882339F3682F54
:1018F000CE0143960E943F07BE016F5F7F4FCE012E
:1019000043960E94A906019621F5BE01695F7F4FAB
:10191000CE0143960E94A9060196D9F4BE01635FE9
:101920007F4FCE0143960E94A906019691F4BE0115
:101930006D5E7F4FC8010E941B08672B682B692BC7
:1019400009F4BCCF6FED71E0CE0143960E94900781
:10195000B5CFBE016D5E7F4FCE0149960E94C40691
:10196000CE0143960E940F07CE0101960E940F07F9
:10197000CE0107960E940F07CE010D960E940F0719
:101980006DE771E0CE0107960E94BA07BE01695F5C
:101990007F4FCE0149960E94A90611E00196A9F455
:1019A00064E871E0CE0101960E94BA07BE016F5F44
:1019B0007F4FCE0149960E94A90611E0019609F4D5
:1019C00010E0CE0101960E940F07CE0107960E94FB
:1019D0000F07CE0149960E940F07CE0185960E94FF
:1019E0000F07CE014F960E940F07812FAA960FB6C0
:1019F000F894DEBF0FBECDBFDF91CF911F910F9145
:101A0000FF90EF90DF90CF90BF90AF909F908F901E
:101A10000895CF92DF92EF92FF920F931F93CF938F
:101A2000DF93CDB7DEB7A4970FB6F894DEBF0FBE35
:101A3000CDBF6C018B01BA01CE0149960E94B1075E
:101A4000B801CE014F960E94B1076FED71E0CE0153
:101A500043960E94BA07C6010E94640B62EA73E0D3
:101A6000F601808191810E943D02BE01615E7F4F3F
:101A7000F601808191810E942F026EE973E0F601E8
:101A8000808191810E943D02BE01675E7F4FF60119
:101A9000808191810E942F026CE973E0F6018081C0
:101AA00091810E94E5056AE971E0CE0107960E94E6
:101AB000BA076DE771E0CE0101960E94BA0710E106
:101AC000E12E17E2F12E00E010E09E01295F3F4F6A
:101AD000AE014F5F5F4FB601CE010D960E940E0919
:101AE000BE01635F7F4FCE0143960E94C406CE01C4
:101AF0000D960E940F07CE0101960E940F07CE019E
:101B000007960E940F076DE771E0CE0101960E94D3
:101B1000BA07BE016F5F7F4FCE0143960E94A906B0
:101B20006C01CE0101960E940F07CE0143960E94E0
:101B30000F07CE014F960E940F07CE0149960E94D3
:101B40000F0781E0CD20C09409F480E0A4960FB681
:101B5000F894DEBF0FBECDBFDF91CF911F910F91E3
:101B6000FF90EF90DF90CF900895CF92DF92EF92A9
:101B7000FF920F931F93CF93DF93CDB7DEB7689794
:101B80000FB6F894DEBF0FBECDBFFC011282EB5F33
:101B9000FE4F11821082329711821082FC01C080A8
:101BA000D1806FED71E0CE0143960E94BA07C60165
:101BB0000E94640B6BE770E0F601808191810E94C6
:101BC0003D0261E0F601808191810E948E056FE9FE
:101BD00071E0CE0107960E94BA076DE771E0CE0171
:101BE00001960E94BA0718E8E12E13E1F12E00E0F9
:101BF00010E09E01295F3F4FAE014F5F5F4FB6017E
:101C0000CE010D960E940E09BE01635F7F4FCE018B
:101C100043960E94C406CE010D960E940F07CE0186
:101C200001960E940F07CE0107960E940F076DE7ED
:101C300071E0CE0107960E94BA07BE01695F7F4F2F
:101C4000CE0143960E94A906019651F46FE971E016
:101C5000CE0101960E94BA07CE0101960E940F079D
:101C6000CE0107960E940F07CE0143960E940F07F0
:101C700068960FB6F894DEBF0FBECDBFDF91CF914F
:101C80001F910F91FF90EF90DF90CF9008950F93E9
:101C90001F93CF93DF93EC01FB0101900020E9F744
:101CA0008F01061B170B8A819B81A801480F591FC2
:101CB0002C813D812417350768F028813981A801DE
:101CC000820F931F0E9441214A815B81400F511F67
:101CD0005B834A83DF91CF911F910F9108952F92DB
:101CE0003F924F925F926F927F928F929F92AF92AC
:101CF000BF92CF92DF92EF92FF920F931F93CF93F9
:101D0000DF93EC015B016A010E9459042B013C0145
:101D10001E012DEF221A2EEF320A7E018BEFE81AF8
:101D20008EEFF80AF10180819181F70120813181E4
:101D3000821B930B97FD93958C159D0580F40E9453
:101D4000590464197509860997096C3D7540810528
:101D5000910528F4888199810E94640BE3CF3601B4
:101D600046012E0123E0420E511C8114910479F0AA
:101D7000F10180819181F70120813181821B930BD8
:101D800097FD93950097B9F4360168187908C30157
:101D9000DF91CF911F910F91FF90EF90DF90CF9047
:101DA000BF90AF909F908F907F906F905F904F907B
:101DB0003F902F900895F70100811181C0E0D1E09C
:101DC000C01BD10B8C169D060CF4E4018C179D07EB
:101DD0000CF4EC01B201600F711FAE01C5010E944D
:101DE00041210C0F1D1F1127F701118300838C1A4D
:101DF0009D0AAC0EBD1EB9CF0F931F93CF93DF93F7
:101E0000CDB7DEB762970FB6F894DEBF0FBECDBF79
:101E10008C01CB014AE0BE016F5F7F4F0E94AB1F78
:101E2000BE016F5F7F4FC8010E94470E62960FB6DA
:101E3000F894DEBF0FBECDBFDF91CF911F910F9100
:101E400008953F924F925F926F927F928F929F92EE
:101E5000AF92BF92CF92DF92EF92FF920F931F93B8
:101E6000CF93DF93CDB7DEB7A3970FB6F894DEBF5D
:101E70000FBECDBF5C010DB71EB71BA30AA360E068
:101E800070E0CB010E942604D50157968D919C915C
:101E90005897912C0297B1F056968C9156978F5F78
:101EA00056968C93569754962D913C915597232B8B
:101EB00049F199249394D50156968C915697815067
:101EC00056968C93892DAAA1BBA10FB6F894BEBFDC
:101ED0000FBEADBFA3960FB6F894DEBF0FBECDBF49
:101EE000DF91CF911F910F91FF90EF90DF90CF90F6
:101EF000BF90AF909F908F907F906F905F904F902A
:101F00003F9008958330A8F6ED91FC91828188235B
:101F100009F415C4FE0131963F0150E1452E512CC4
:101F2000D5010D911C91F801808191810E94640B73
:101F3000F801ED5FFE4F80819181329620813181E1
:101F4000821B930B97FD9395181619060CF0F7C397
:101F500045E050E0BE01695E7F4FD5018D919C91B7
:101F60000E946F0E0097E1F2059709F07BC0888D03
:101F7000998D982789279827998F888F0A8D1B8D8F
:101F80001027012710271B8F0A8F892B09F46AC09D
:101F90008F8981117FC00E945904F5016683778380
:101FA000808791872789308D8A8D9B8D232B09F01F
:101FB0006DC0288D398D2130310509F067C0893019
:101FC000910509F440C0883C910519F0049709F087
:101FD00050C00E94BD056FE672E08DE592E00E9460
:101FE0003D02D50116964D915D916D917C911997A9
:101FF0001E968D919D910D90BC91A02D481B590B63
:102000006A0B7B0B2AE08DE592E00E9442056AE6AE
:1020100072E08DE592E00E94E505F50186819781E9
:10202000A085B18586879787A08BB18B01E010E0F2
:10203000108F078BC5010E94BA1660E070E0CB01DB
:102040000E9426046DCF0E94BD0569E673E08DE510
:1020500092E00E94E50583E090E0D50158969C93BC
:102060008E935797F501808191810E94B50D912C37
:1020700022CF0E94BD0562E573E08DE592E00E94EB
:102080003D028A8D9B8D0E94A705ECCF059709F034
:1020900047CFE8CF0130B1E01B07A0F00E94BD059B
:1020A00061E473E08DE592E00E943D028A8D9B8D94
:1020B0000E94A705F501108E178A808191810E94E8
:1020C000B50D2ECF8DB69EB6C80101962DB73EB781
:1020D000281B390B0FB6F8943EBF0FBE2DBF4DB76E
:1020E0005EB74F5F5F4F7A01A801B701D5018D91AF
:1020F0009C910E946F0E8017910709F083C0EA8DB2
:10210000FB8DEE0DFF1D10820E945904F5016683C0
:102110007783808791878F89813109F400C3B0F577
:10212000863001F18F3009F4E7C08230A9F5D5017E
:1021300057968D919C91892BA9F40E94BD056BE364
:1021400073E08DE592E00E94E50501E010E0F50105
:10215000108F078BC5010E94BA1660E070E0CB01BA
:102160000E942604488D598DD12CC12CF12CE12CD4
:1021700008EC10E030E020E060E0C5010E94D314DC
:102180000FB6F8949EBE0FBE8DBECACE8D3179F2C9
:1021900068F4843109F4B0C0D50158961C921E929F
:1021A00057978D919C910E94B50DEACF8932A1F08D
:1021B000873391F78A8D9B8D892B11F30E94BD0582
:1021C00062E273E08DE592E00E943D02B7018DE589
:1021D00092E00E94D105D4CF84819581892B39F476
:1021E00080E290E00E94381EF501958384830A8D79
:1021F0001B8D0E0D1F1DFA82E9821C830B83E016D6
:10220000F10630F00FB6F8949EBE0FBE8DBE2ACFF9
:1022100040E250E0B701D50114968D919C910E9447
:102220006521C3010E947C06FC0180819181801799
:10223000910708F05EC089819A81009709F455C022
:102240002B813C818217930708F04FC00E947B1FAF
:102250008B010E94BD056BE273E08DE592E00E9468
:102260003D02D50114966D917C916115710521F0A7
:102270008DE592E00E9433056AE38DE592E00E94CD
:102280000103C8010E94A705F501808191810E9488
:10229000B50DD5018D919C91119714962D913C917E
:1022A0001597FC01E95FFE4F31832083875F9E4FC6
:1022B000FC011183008358961C921E9257970E942E
:1022C0005904DC01CB0188589341A109B109F501FA
:1022D00082879387A487B58786839783A087B187F2
:1022E00086879787A08BB18B4BCF60E070E0CB01E6
:1022F000AFCF00E510E0ADCF888D998DD501559613
:102300009C938E9354970A8D1B8D19A308A3680183
:10231000CE0CDF1CFD8EEC8EDF8ECE8EEC14FD0419
:1023200008F092C1D7010D911C91CE014C960E94EC
:102330007C06FC01808191818C159D0508F084C18B
:102340008C8D9D8DDC012C91213409F065C00196A6
:102350000E945D1F4EE0342E380E06970CF461C0CB
:102360000637B2E71B0709F46FC108F00BC301364B
:10237000F2E71F0709F4F1C2043622E7120709F059
:1023800060C033243A947A8A698A1C8A1B8A5E8ADE
:102390004D8A69EB71E0CE0141960E94470E032DF4
:1023A00010E0B801CE0141960E94FC0EF801E358FE
:1023B000FD4F8491F801E451FC4FF49008521C4FFA
:1023C000F801049160E070E0002389F081110E941F
:1023D0006E03E02FF0E0EE0FFF1FEC53FC4FA591D2
:1023E000B491EC91FE2261E070E009F460E0CE016E
:1023F00041960E94FC0E0B891C8901501109298904
:102400003A89D12CC12CF12CE12C50E040E064E160
:10241000C5010E94D31418C1CE014C960E948F06AC
:10242000382E0637B2E71B0709F431C148F50136EB
:10243000F2E71F0709F4B7C0043622E7120709F4D0
:10244000A2CF00371D4609F473C00E94BD0561E1AB
:1024500073E08DE592E00E943D02B7018DE592E0C8
:102460000E94D105D50154964D915C91D12CC12C7F
:10247000F12CE12C02E010E030E020E060E0C8CF79
:10248000043647E7140709F473C0063757E7150702
:1024900009F416C101361747C1F6CE014C960E94C9
:1024A0007C06DC018D919C918C159D0508F0CCC0BB
:1024B00061E0832D0E94C503CE014C960E948F06D9
:1024C0008C0161E0832D0E94C5030115110509F4FB
:1024D00065C00F3F110509F092C061E060C0CE01F8
:1024E0004C960E948F06F82ECE014C960E947C06D8
:1024F0000C8D1D8D6BEA71E0C8010E94552160E0D2
:10250000892B79F06EEA71E0C8010E945521892B70
:1025100039F062EB71E0C8010E945521892BE9F482
:1025200061E08F2D0E94C503CE014C960E947C066F
:102530008C8D9D8D8C159D0508F086C0DC012C913D
:10254000213469F601960E945D1F3EE0F32EF80EDD
:10255000069754F2FF24FA94C7CF66EB71E0C801E6
:102560000E945521892B01F762E0DBCF33243A9496
:10257000CE014C960E947C06DC018D919C918C15BD
:102580009D0508F061C061E0832D0E94C503CE0166
:102590004C960E948F0661E0892B09F460E0832D40
:1025A0000E94970351C07A8A698A1C8A1B8A5E8AB4
:1025B0004D8A6CEB71E0CE0141960E94470E632D6F
:1025C00070E0CE0141960E94FC0EBDE0B31510F400
:1025D000E2EF3E0E832D8770806480937C008091B3
:1025E0007A00806480937A0080917A0086FDFCCF27
:1025F0008091780060917900762F682FF8CEE32DD6
:10260000F0E0E358FD4FE491E33039F148F4E13074
:10261000B9F0E230E9F0003811050CF05ECFBECF22
:10262000E73029F1E83059F1E430A9F780918000D2
:1026300080628093800010938B0000938A0004C016
:1026400084B5806884BD07BDF501158A148A98CDCC
:1026500084B5806284BD08BDF7CF8091800080681A
:10266000809380001093890000938800EDCF8091C3
:10267000B00080688093B0000093B300E5CF8091F4
:10268000B00080628093B0000093B400DDCF398247
:10269000BFE1B315C8F2E32DF0E0EE0FFF1FEF56D8
:1026A000FD4F259134912115310571F2E2E02D3273
:1026B0003E0751F2C301F9010995C6CF33243A947C
:1026C000CE014C960E947C062C8D3D8DC9018E1941
:1026D0009F0908A119A1081B190B3A8329831C83A0
:1026E0000B831E830D83398A1FE1131508F4ACCFC9
:1026F000E32DF0E0EE0FFF1FEF52FD4F25913491D7
:102700002115310509F4A0CF42E02C32340709F439
:102710009BCFB301CE014196F901099595CF8A8DE2
:102720009B8D8E0D9F1DFA82E9829C838B83E81618
:10273000F90608F025CDC3010E947C0621CD0E9438
:1027400059042B013C01D5018D919C911197FC01FD
:10275000928057962D913C9158972130310509F080
:1027600073C091100DC01E964D925D926D927C9239
:10277000519758961C921E9257970E94B50D9BCB6D
:10278000F50186819781A085B18593018201081B9F
:10279000190B2A0B3B0BD901C80189331AE49107A5
:1027A000A105B10580F00E94BD056AE873E08DE5E2
:1027B00092E00E94E505D50158961C921E9257970B
:1027C0008D919C9152CC81319742A105B10598F42D
:1027D000F50182859385A485B58593018201081B47
:1027E000190B2A0B3B0BD901C80181319742A10576
:1027F000B10508F45ECBF50186859785A089B1897E
:1028000093018201081B190B2A0B3B0BD901C8014C
:10281000893B9B40A105B10508F44BCBD12CC12CC1
:10282000F12CE12C10E000E030E020E050E040E04E
:1028300066E0C5010E94D314D5011E964D925D92AB
:102840006D927C92519737CB232B09F032CBF50157
:10285000468557856089718993018201041B150B98
:10286000260B370BB901A8019920B9F0493B5B4011
:102870006105710508F41DCB0E94BD056CE773E08E
:102880008DE592E00E94E505D5018D919C910E9415
:10289000B50DF501108E178AEACB49385341610511
:1028A000710508F406CB0E94B50DD5010D911C9160
:1028B000F801E95FFE4F608171816115710531F4A6
:1028C000F50146865786608A718AF5CAF801E75F86
:1028D000FE4FE080F180E114F10491F3D801CD9036
:1028E000DC90CE0101960E94BA07970150E040E0CB
:1028F000BE016F5F7F4FC6010E94C80BF801828343
:10290000CE0101960E940F07D80112968C90882064
:10291000B9F281E090E0F501938B828B22813381C3
:10292000F90101900020E9F731978F01021B130B89
:10293000D12CC12CF12CE12C41E050E06DE1C5011E
:102940000E94D314F50182859385A485B585868779
:102950009787A08BB18B982CAECA7A8A698A1C8A19
:102960001B8A5E8A4D8A6CEB71E0CE0141960E9413
:10297000470E6FEF70E0CE0141960E94FC0E3324AB
:102980003A9426CE043647E7140709F4EFCD06370C
:1029900057E7150709F492CE0136174709F055CDD0
:1029A00033243A947ACD2F923F924F925F926F9256
:1029B0007F928F929F92AF92BF92CF92DF92EF92CF
:1029C000FF920F931F93CF93DF93CDB7DEB72E9770
:1029D0000FB6F894DEBF0FBECDBF5C016F833A0126
:1029E00049012DB73EB73E872D87DC01ED91FC9163
:1029F0008281882309F473C1862F8D7F09F4B5C1C4
:102A0000663009F4B2C16D3109F4AFC1F5018789AF
:102A1000908D019709F063C1452BB9F4D501549607
:102A20006D907C9055976114710479F452968D9154
:102A30009C915397019609F415C153969C938E93DC
:102A40005297D50152966D907C908F818C50893031
:102A500090F5F50186819781A085B18542855385E2
:102A600064857585481759076A077B0710F4AC0120
:102A7000BD011A012B01F2E42F0E311C411C511C27
:102A80000E945904A2019101261B370B480B590BD8
:102A9000DA01C901B7FDECC0C5010E94210F0E94F7
:102AA0005904A2019101261B370B480B590BDA017F
:102AB000C901B7FFF1CFC80105968114910411F443
:102AC00085E090E0312C212CE114F10409F016018D
:102AD000280E391EEDB7FEB7E219F3090FB6F894C8
:102AE000FEBF0FBEEDBF2DB73EB72F5F3F4F3C87F8
:102AF0002B873F813183762467247624AB85BC8580
:102B000012967C926E921197C8018C0D9D1D98278C
:102B10008927982714969C938E9313978114910478
:102B200009F4AFC00115110509F4ABC08DB79EB70C
:102B30000696A801B4010E944121C8010596E1143E
:102B4000F10459F0C114D10441F0A601B701EB859D
:102B5000FC858E0F9F1F0E944121F12CE12CE21475
:102B6000F30408F0C7C06101CE18DF08F8E2CF1601
:102B7000D10418F088E2C82ED12CD501ED91FC913A
:102B800000811181960150E040E02F83388749870A
:102B90005A87C8010E94640B6AE870E0D8018D91E1
:102BA0009C910E943D022AE041E050E060E070E02C
:102BB000F801808191810E94420568E870E0D801A7
:102BC0008D919C910E943D02F801808091802AE0C5
:102BD0004F81588569857A85C4010E9442056DED53
:102BE00071E0C4010E9433056FEB71E0CE010196E4
:102BF0000E94BA0728E833E140E050E0BE016F5F71
:102C00007F4FC8010E94060B982ECE0101960E94AC
:102C10000F07992009F44FC0C8010E94640B8B84F0
:102C20009C848E0C9F1C412C512C32012F813885A5
:102C300049855A85421653066406750628F5D8015B
:102C40008D919C91F40161914F01DC01ED91FC911A
:102C50000190F081E02D0995BFEF4B1A5B0A6B0ADA
:102C60007B0AE4CF81E090E0F501938B828BE9CE83
:102C7000D50156968C9181111ECFC5010E94210F5E
:102C80001ACF85E090E05BCF61EC71E0CE01019658
:102C90000E94BA0720E137E240E050E0BE016F5FDA
:102CA0007F4FC8010E94060B182FCE0101960E948B
:102CB0000F07111102C0D12CC12C60E070E0CB01D4
:102CC0000E942604C114D10491F4F5018081918100
:102CD0000E94B50DD50158961C921E9257972D85CE
:102CE0003E850FB6F8943EBF0FBE2DBF1EC0EC0C44
:102CF000FD1C35CFE214F30441F0F501108E178A64
:102D0000808191810E94B50DEACF0E945904D501BE
:102D10001A966D937D938D939C931D97ED85FE85FB
:102D20000FB6F894FEBF0FBEEDBF4D855E850FB6A2
:102D3000F8945EBF0FBE4DBF2E960FB6F894DEBF5F
:102D40000FBECDBFDF91CF911F910F91FF90EF90FC
:102D5000DF90CF90BF90AF909F908F907F906F90BB
:102D60005F904F903F902F9008956114710409F087
:102D7000A2CE54CEAF92BF92CF92DF92EF92FF924B
:102D80000F931F93CF93DF93CDB7DEB7C65AD10908
:102D90000FB6F894DEBF0FBECDBF5C0146E650E033
:102DA0006EE970E0CE0101960E94A21FD12CC12CC9
:102DB000CE0189599F4F7C0106E610E09E012F5FEE
:102DC0003F4F50E040E061E1C5010E94D314CA5575
:102DD000DF4F0FB6F894DEBF0FBECDBFDF91CF91AE
:102DE0001F910F91FF90EF90DF90CF90BF90AF9029
:102DF0000895AF92BF92CF92DF92EF92FF920F931E
:102E00001F93CF93DF93CDB7DEB72E970FB6F8940D
:102E1000DEBF0FBECDBF5C0125E4A20EB11CF501E3
:102E2000C080CC2051F17C01FC01048110E0CE0176
:102E300001969A8789871C861B8688E090E09E878A
:102E40008D8769EC71E0CE0109960E94470EB801AA
:102E5000CE0109960E94FC0ED12CF5E0EF0EF11C7C
:102E60000B851C8529853A8550E040E064E185E6C4
:102E700093E00E94D314F50110822E960FB6F894B9
:102E8000DEBF0FBECDBFDF91CF911F910F91FF909D
:102E9000EF90DF90CF90BF90AF9008951F920F9268
:102EA0000FB60F9211242F933F934F935F936F931D
:102EB0007F938F939F93AF93BF93EF93FF938DE592
:102EC00092E00E94DF02FF91EF91BF91AF919F913D
:102ED0008F917F916F915F914F913F912F910F90C3
:102EE0000FBE0F901F9018951F920F920FB60F9262
:102EF00011242F938F939F93EF93FF93E0916D0293
:102F0000F0916E028081E0917302F091740282FD73
:102F10001BC09081809176028F5F8F732091770222
:102F2000821741F0E0917602F0E0E35AFD4F958F71
:102F300080937602FF91EF919F918F912F910F9047
:102F40000FBE0F901F9018958081F4CF1F920F92A3
:102F50000FB60F9211242F933F938F939F93AF93AC
:102F6000BF938091510290915202A0915302B0916F
:102F700054023091500223E0230F2D3758F501966B
:102F8000A11DB11D209350028093510290935202D3
:102F9000A0935302B093540280915502909156022F
:102FA000A0915702B09158020196A11DB11D8093C6
:102FB000550290935602A0935702B0935802BF91C6
:102FC000AF919F918F913F912F910F900FBE0F90D6
:102FD0001F90189526E8230F0296A11DB11DD2CF90
:102FE0001F920F920FB60F9211242F933F934F937E
:102FF0005F936F937F938F939F93AF93BF93EF9361
:10300000FF93E0915B02F0915C02309749F0A68556
:10301000B7858585968D91FF14C09C918923A1F475
:10302000FF91EF91BF91AF919F918F917F916F91A0
:103030005F914F913F912F910F900FBE0F901F9076
:1030400018959C91892361F7A389B4899C918589FE
:10305000809589238C93868997890197F1F7608DF4
:10306000718DA685B785558538E020E0CB010197A5
:10307000F1F7822F90E095958795282F4C91452365
:1030800009F02068315091F7868D81FD209580915F
:103090005A0290E001968F739927309159023817A0
:1030A00099F0A0915A02B0E0A05FBD4F2C9380939D
:1030B0005A02828D938D0197F1F7A389B4898C917F
:1030C0009589892B8C93ACCF868D8160868FF1CFCB
:1030D0001092600210925F0288EE93E0A0E0B0E0F0
:1030E0008093610290936202A0936302B0936402A2
:1030F00025E431E030935E0220935D0225EC30E060
:1031000030936A022093690224EC30E030936C0221
:1031100020936B0220EC30E030936E0220936D021E
:1031200021EC30E03093700220936F0222EC30E00B
:10313000309372022093710226EC30E030937402D7
:103140002093730210927602109277021092780206
:1031500010927902109281031092800310928203E0
:1031600010928604109285041092840410928304B5
:10317000109288041092870410928A041092890495
:1031800020E833E0309366032093650310926803D0
:103190001092670310926A031092690310926B03F6
:1031A00010926C0310926D0310926E0310926F03D5
:1031B00010927003109271031092720310927303B5
:1031C0001092740310927503109276031092780394
:1031D0001092770310927A031092790310927B0376
:1031E00010927D0310927C0310927F0310927E0355
:1031F000109249031092480380934A0390934B0323
:10320000A0934C03B0934D0387E591E0909347035F
:103210008093460310925D0310925C0310925F034B
:1032200010925E0310926103109260031092630388
:1032300010926203609164036E7F6D7F60936403FC
:103240006695617081E0682782E00E94970361E0E3
:1032500082E00E94C503EEEEF3E0E491E0935603B2
:10326000EAEDF3E0E491F0E0EE0FFF1FE253FC4FD4
:1032700085919491909358038093570360E083E085
:103280000E94C5038091640381FD04C061E083E076
:103290000E94970383E080935203EFEEF3E0E49102
:1032A000E0935303EBEDF3E0E491F0E0EE0FFF1F4A
:1032B000EC53FC4F85919491909355038093540364
:1032C00086E493E09093410380934003109243037C
:1032D0001092420310924503109244031092FE0292
:1032E0001092FD021092FC0289E691E09093FB029D
:1032F0008093FA0210923F030895CF93DF93CDB7E6
:10330000DEB7C859D1090FB6F894DEBF0FBECDBFE6
:10331000789484B5826084BD84B5816084BD85B5B0
:10332000826085BD85B5816085BD80916E008160BC
:1033300080936E0010928100809181008260809362
:103340008100809181008160809381008091800064
:103350008160809380008091B10084608093B1008F
:103360008091B00081608093B00080917A00846089
:1033700080937A0080917A00826080937A008091B5
:103380007A00816080937A0080917A0080688093CF
:103390007A001092C100E0916D02F0916E0282E01D
:1033A0008083E0916902F0916A021082E0916B02E1
:1033B000F0916C028FEC808310927502E0917102A3
:1033C000F091720286E08083E0916F02F0917002CA
:1033D000808180618083E0916F02F0917002808132
:1033E00088608083E0916F02F09170028081806834
:1033F0008083E0916F02F091700280818F7D8083E5
:10340000109261031092600310925F0310925E03AA
:1034100010925D0310925C0385E690E09093630345
:103420008093620390915203963108F047C021E2E5
:1034300030E030935D0320935C0323E630E030936B
:103440005F0320935E0322E430E030936103209316
:1034500060032091680084E0983048F031E09E30AD
:1034600008F430E081E001C0880F3A95EAF7822B3A
:10347000809368002DE630E0983050F02BE630E085
:103480009E3030F02CE630E0963110F030E020E055
:1034900030935A0320935903292F30E0983008F0D5
:1034A000FDC081E001C0880F9A95EAF780935B0325
:1034B00080916203909163030197F1F7809160031B
:1034C00090916103892B49F1E0915B02F0915C02DC
:1034D00023E0E634F20709F1309739F0A389B48983
:1034E0009C918589809589238C93809164038E7F3C
:1034F0008093640310925A021092590286E493E07A
:1035000090935C0280935B02E0915903F0915A031F
:10351000808190915B03892B80836AE070E080E07A
:1035200090E00E9426048AE191E0909368038093E2
:1035300067030E945904DC01CB0188589341A1091B
:10354000B10980936F0390937003A0937103B093BC
:10355000720380936B0390936C03A0936D03B093FD
:103560006E038093730390937403A0937503B093D9
:1035700076030E94BD0569ED71E08DE592E00E9441
:10358000E50580E493E090937F0380937E03E091D0
:103590006503F09166039183808389EF95E09093B2
:1035A000430380934203F0934503E09344038091E7
:1035B000650390916603FC01E95FFE4F2CEC31E05E
:1035C00031832083875F9E4F20E530E0FC0131830B
:1035D000208364EF71E080E090E00E9426040E9466
:1035E000BD056AEC71E08DE592E00E943D026BE062
:1035F00071E08DE592E00E94D10500917E0310916B
:103600007F03C8010E94640B65E471E0F8018081CA
:1036100091810E94E5056DE771E0CE0101965C01A4
:103620000E94BA0728EE33E040E050E0B501C8013F
:103630000E94060B182FC5010E940F0711113BC0F5
:103640000E94BD0564EB71E08DE592E00E94E50506
:1036500080916503909166030E94B50D10927D03E1
:1036600010927C030E9459042B013C0180917C0341
:1036700090917D03019709F476C20E945904641960
:10368000750986099709683273428105910508F02A
:103690006AC285E693E00E94210FE8CF9E3040F495
:1036A0002850310981E001C0880F2A95EAF7FECE43
:1036B0002E503109F7CF60907E0370907F03C301D5
:1036C0000E94640B61E471E0F301808191810E94AA
:1036D0003D0260E0F301808191810E948E056DE7DB
:1036E00071E0C5010E94BA0728EE33E040E050E0E7
:1036F000B501C3010E94060B182FC5010E940F07D8
:10370000111105C00E94BD056DE971E09DCF60906B
:103710007E0370907F036FED71E0CE018D569F4F59
:103720000E94BA07C3010E94640B68EB7BE080E053
:1037300090E00E9426046AE371E0F30180819181A8
:103740000E94E50569E771E0C5010E94BA076CEDCA
:1037500071E0CE018F579F4F0E94BA076DE771E06D
:10376000CE0189579F4F0E94BA0730E1C32E37E23E
:10377000D32EE12CF12C8E010D561F4F9501AE0179
:103780004F575F4FBE0169577F4FC3010E94000A28
:10379000CE0189579F4F0E940F07CE018F579F4F31
:1037A0000E940F07C5010E940F070E94BD05B801C6
:1037B0008DE592E00E942F026DED71E08DE592E0C3
:1037C0000E94330560907E0370907F036FED71E07F
:1037D000CE0183579F4F0E94BA07C3010E94640B1A
:1037E0006FE271E0F301808191810E943D0261E00E
:1037F000F301808191810E948E0560EE71E0CE011F
:103800008F579F4F0E94BA076DE771E0C5010E9474
:10381000BA0718EEE12E13E0F12E00E010E09E0151
:103820002F573F4FA501B301CE0189579F4F0E94EB
:103830000E09BE0169577F4FCE0183579F4F0E94EB
:10384000C406CE0189579F4F0E940F07C5010E94F1
:103850000F07CE018F579F4F0E940F076DE771E052
:10386000C5010E94BA07B501CE0183579F4F0E9440
:10387000A9068C01C5010E940F07CE0183579F4FF7
:103880000E940F070F3F1F4F41F40E94BD0568E8DB
:1038900071E08DE592E00E94E50560907E037090F6
:1038A0007F036FED71E0CE0183579F4F0E94BA07EF
:1038B000C3010E94640B64E271E0F3018081918195
:1038C0000E94E50569E771E0CE0189579F4F0E948C
:1038D000BA0760EF71E0CE018F579F4F0E94BA0781
:1038E0006DE771E0C5010E94BA0728EEC22E23E001
:1038F000D22EE12CF12C8E0103571F4F9E01295728
:103900003F4FAE014F575F4FB501C3010E94000A00
:10391000D82EC5010E940F07CE018F579F4F0E94DE
:103920000F07CE0189579F4F0E940F07DD2021F01E
:10393000C8010E949E06962ECE0183579F4F0E947B
:103940000F07D1100EC00E94BD0561E771E08DE543
:1039500092E00E94E505CE018D569F4F0E940F0711
:1039600077CEF1E09F1609F479C06FED71E0CE01DA
:1039700083579F4F0E94BA07C3010E94640B69E1FD
:1039800071E0F301808191810E943D0261E0F301C9
:10399000808191810E948E0562EF71E0CE018F5788
:1039A0009F4F0E94BA076DE771E0CE0189579F4F84
:1039B0000E94BA0718EEE12E13E0F12E00E010E0AD
:1039C0009E012F573F4FAE0149575F4FB301C501CD
:1039D0000E940E09B501CE0183579F4F0E94C40675
:1039E000C5010E940F07CE0189579F4F0E940F0704
:1039F000CE018F579F4F0E940F076DE771E0C50101
:103A00000E94BA07B501CE0183579F4F0E94A906B5
:103A10000196C9F462EF71E0CE018F579F4F0E946B
:103A2000BA07BE016F577F4FCE0183579F4F0E9449
:103A3000A906DD24D394019609F4D12CCE018F5729
:103A40009F4F0E940F07C5010E940F07CE018357A9
:103A50009F4F0E940F07DD2009F475CF00917E0370
:103A600010917F0360E071E0CE018F579F4F0E945D
:103A7000BA076BE071E0C5010E94BA07AE014F576B
:103A80005F4FB501C8010E94090D182FC5010E94A2
:103A90000F07CE018F579F4F0E940F07112309F484
:103AA0005DC060907E0370907F036FED71E0CE018A
:103AB00083579F4F0E94BA07C3010E94640B60E1C5
:103AC00071E0F301808191810E94E50569E771E071
:103AD000C5010E94BA076CED71E0CE018F579F4F70
:103AE0000E94BA076DE771E0CE0189579F4F0E948F
:103AF000BA0788EEC82E83E0D82EE12CF12C8E0177
:103B000003571F4F9501AE014F575F4FBE016957D5
:103B10007F4FC3010E94000ACE0189579F4F0E9428
:103B20000F07CE018F579F4F0E940F07C5010E94BC
:103B30000F070E94BD05B8018DE592E00E942F029B
:103B40006DED71E08DE592E00E943305C8010E94A1
:103B50000F070E94BD056FE571E0F9CE0E94BD051B
:103B600068E471E0F4CE80917C0390917D0301972D
:103B700009F06ECD8AEF92E00E94F9160091FE02E4
:103B800010E0CF57DF4FB982A882C158D040CD573F
:103B9000DF4F19821882C358D04080E890E0CB579D
:103BA000DF4F99838883C558D04069EC71E0CE011E
:103BB0008F579F4F0E94470EB801CE018F579F4FDE
:103BC0000E94FC0E6CEF71E0CE018F579F4F0E9458
:103BD000470ECD57DF4F08811981C358D04001509F
:103BE0001109CF57DF4F28813981C158D040D12CDE
:103BF000C12CF12CE12C50E040E064E185E693E03B
:103C00000E94D31460E072E08AEF92E00E94D10536
:103C10008AEF92E00E94F91600E010E085E693E05A
:103C20000E94210F01151105C9F30E94CB028823C0
:103C3000A9F30E940000F2CF87E591E0909347033B
:103C40008093460380915B0290915C02865493407E
:103C500071F4E0915903F0915A03908180915B03D4
:103C600080958923808310925C0210925B020895F4
:103C70000F931F93CF93DF938230910510F482E06E
:103C800090E0E0918D04F0918E0430E020E0B0E00F
:103C9000A0E0309799F42115310509F44AC0281B9A
:103CA000390B24303105D8F58A819B816115710566
:103CB00089F1FB0193838283FE0111C04081518110
:103CC0000281138148175907E0F04817590799F402
:103CD000109761F012960C93129713961C933296DC
:103CE000CF01DF91CF911F910F91089500938D0423
:103CF00010938E04F4CF2115310551F0421753076C
:103D000038F0A901DB019A01BD01DF01F801C1CF43
:103D1000EF01F9CF90938E0480938D04CDCFFE01F7
:103D2000E20FF31F81939193225031093983288345
:103D3000D7CF20918B0430918C04232B41F4209118
:103D40003D0130913E0130938C0420938B042091EF
:103D50003B0130913C012115310541F42DB73EB7AF
:103D600040913F0150914001241B350BE0918B04A1
:103D7000F0918C04E217F307A0F42E1B3F0B2817D9
:103D8000390778F0AC014E5F5F4F2417350748F0D4
:103D90004E0F5F1F50938C0440938B04819391933B
:103DA0009FCFF0E0E0E09CCFCF93DF930097E9F066
:103DB000FC01329713821282A0918D04B0918E047F
:103DC000ED0130E020E01097A1F420813181820FD5
:103DD000931F20918B0430918C042817390709F028
:103DE00061C0F0938C04E0938B04DF91CF91089530
:103DF000EA01CE17DF07E8F54A815B819E01411594
:103E00005105B1F7E901FB83EA8349915991C40F48
:103E1000D51FEC17FD0761F4808191810296840F14
:103E2000951FE90199838883828193819B838A838B
:103E3000F0E0E0E012968D919C9113970097B9F510
:103E40002D913C911197CD010296820F931F2091E5
:103E50008B0430918C042817390739F6309751F5C7
:103E600010928E0410928D04B0938C04A0938B0456
:103E7000BCCFD383C28340815181840F951FC81763
:103E8000D90761F44E5F5F4F88819981480F591FB0
:103E9000518340838A819B819383828321153105DD
:103EA00009F0B0CFF0938E04E0938D049ECFFD0116
:103EB000DC01C0CF13821282D7CFFC01882799275B
:103EC000E89421912032E9F3293010F02E30C8F324
:103ED0002B3241F02D3239F4689404C00E94CB1F7C
:103EE000820F911D219120532A30C0F31EF490952A
:103EF00081959F4F08951F93FC0199278827BC0146
:103F0000E89411911032E9F3193010F01E30C8F323
:103F10001B3251F01D3249F4689406C00E94B61F4E
:103F2000610F711D811D911D119110531A30B0F355
:103F30003EF490958095709561957F4F8F4F9F4F80
:103F40001F910895FB01DC0102C005900D924150C4
:103F50005040D8F70895BB274A3031F4992322F412
:103F6000BDE2909581959F4F0C94D41F592F482FF7
:103F7000372F262F660F771F881F991F660F771F11
:103F8000881F991F620F731F841F951F660F771F6D
:103F9000881F991F08957AE0979F902D879F802D05
:103FA000910D11240895BB27FB015527AA27880FDF
:103FB000991FAA1FA41710F0A41B83955051B9F79D
:103FC000A05DAA3308F0A95DA193009779F7B1111C
:103FD000B1931192CB010C94ED1FDC01FC01672F12
:103FE00071917723E1F7329704C07C916D937083D0
:103FF0006291AE17BF07C8F308952F923F924F9278
:104000005F926F927F928F929F92AF92BF92CF9268
:10401000DF92EF92FF920F931F93CF93DF93CDB771
:10402000DEB7CA1BDB0B0FB6F894DEBF0FBECDBFE9
:1040300009942A88398848885F846E847D848C84BA
:104040009B84AA84B984C884DF80EE80FD800C81C3
:104050001B81AA81B981CE0FD11D0FB6F894DEBFA6
:104060000FBECDBFED01089597FB072E16F4009407
:1040700007D077FD09D00E946A2007FC05D03EF4E6
:10408000909581959F4F0895709561957F4F089504
:10409000A1E21A2EAA1BBB1BFD010DC0AA1FBB1F4C
:1040A000EE1FFF1FA217B307E407F50720F0A21BBE
:1040B000B30BE40BF50B661F771F881F991F1A942B
:1040C00069F760957095809590959B01AC01BD0155
:1040D000CF010895AA1BBB1B51E107C0AA1FBB1F3C
:1040E000A617B70710F0A61BB70B881F991F5A9584
:1040F000A9F780959095BC01CD010895EE0FFF1FA3
:104100000590F491E02D0994B0E0A0E0EAE8F0E237
:104110000C94FF1F8C01009751F4CB010E94381EB4
:104120008C01C801CDB7DEB7E0E10C941B20FC0187
:10413000E60FF71F9C0122503109E217F30708F43C
:104140009DC0D901CD91DC911197C617D70798F082
:10415000C530D10530F3CE0104978617970708F3D1
:10416000C61BD70B2297C193D1936D937C93CF013C
:104170000E94D41ED6CF5B01AC1ABD0A4C018C0E36
:104180009D1EA0918D04B0918E04512C412CF12CD8
:10419000E12C109731F580918B0490918C04881557
:1041A000990509F05CC04616570608F058C0809182
:1041B0003B0190913C01009741F48DB79EB740912F
:1041C0003F0150914001841B950BE817F90708F057
:1041D00055C0F0938C04E0938B04F90171836083E4
:1041E000A0CF8D919C91119712966C901297139677
:1041F0007C901397A815B90559F56C0142E0C40EDF
:10420000D11CCA14DB0420F1AC014A195B09DA01A4
:104210001296159780F06282738251834083D90190
:104220006D937C93E114F10471F0D7011396FC9324
:10423000EE93129776CF22968C0F9D1FF9019183F2
:104240008083F301EFCFF0938E04E0938D0469CF68
:104250004816590608F42C017D01D3019ACFCB01F1
:104260000E94381E7C01009749F0AE01B8010E94FF
:104270004121C8010E94D41E870153CF10E000E005
:1042800050CFFB01DC0102C001900D924150504023
:10429000D8F70895FC018191861721F08823D9F77A
:1042A000992708953197CF010895FB01DC018D9185
:1042B000019080190110D9F3990B0895FB01DC01DD
:1042C00001900D920020E1F70895FB01DC014150BF
:1042D000504048F001900D920020C9F701C01D9296
:1042E00041505040E0F70895FB0151915523A9F04A
:1042F000BF01DC014D9145174111E1F759F4CD01A2
:104300000190002049F04D9140154111C9F3FB0186
:104310004111EFCF81E090E00197089512E0C1E0F4
:10432000D2E004C0FE010E947E202196C230D10757
:06433000C9F7F894FFCF6D
:1043360030393632353339353033005468616E7969
:10434600616B6F726E5F33424200344B4551743677
:10435600547374436B4E4455654E506D49385A3804
:10436600333443536A4E7A6C50630000008F0480E6
:104376000000000000010361028E024E03BF029D91
:1043860002B102000000007D04610230052D02D951
:1043960004F104650400000000190561023005F906
:1043A6001612052B4950442C000D0A0D0A4F4B00DE
:1043B60054435000414C524541445920434F4E4EC0
:1043C600454354004552524F52004641494C006CF9
:1043D600696E6B206973206E6F7400696E006F756D
:1043E600740070776D007075006477006177003E29
:1043F6000053454E44204F4B00767700626C796E31
:104406006B2D636C6F75642E636F6D000D0D0A0066
:104416004C696E6B206973206275696C6465640013
:104426003A006E6F206368616E676500636C7200A8
:104436005769666920436F6E6E6563746564000034
:107E0000112484B714BE81FFF0D085E080938100F7
:107E100082E08093C00088E18093C10086E0809377
:107E2000C20080E18093C4008EE0C9D0259A86E02C
:107E300020E33CEF91E0309385002093840096BBD3
:107E4000B09BFECF1D9AA8958150A9F7CC24DD24C4
:107E500088248394B5E0AB2EA1E19A2EF3E0BF2EE7
:107E6000A2D0813461F49FD0082FAFD0023811F036
:107E7000013811F484E001C083E08DD089C08234E0
:107E800011F484E103C0853419F485E0A6D080C0E4
:107E9000853579F488D0E82EFF2485D0082F10E0AE
:107EA000102F00270E291F29000F111F8ED06801E7
:107EB0006FC0863521F484E090D080E0DECF843638
:107EC00009F040C070D06FD0082F6DD080E0C81688
:107ED00080E7D80618F4F601B7BEE895C0E0D1E017
:107EE00062D089930C17E1F7F0E0CF16F0E7DF06D8
:107EF00018F0F601B7BEE89568D007B600FCFDCFD4
:107F0000A601A0E0B1E02C9130E011968C91119780
:107F100090E0982F8827822B932B1296FA010C0160
:107F200087BEE89511244E5F5F4FF1E0A038BF0790
:107F300051F7F601A7BEE89507B600FCFDCF97BE46
:107F4000E89526C08437B1F42ED02DD0F82E2BD052
:107F50003CD0F601EF2C8F010F5F1F4F84911BD097
:107F6000EA94F801C1F70894C11CD11CFA94CF0C13
:107F7000D11C0EC0853739F428D08EE10CD085E9AC
:107F80000AD08FE07ACF813511F488E018D01DD067
:107F900080E101D065CF982F8091C00085FFFCCF94
:107FA0009093C60008958091C00087FFFCCF809118
:107FB000C00084FD01C0A8958091C6000895E0E648
:107FC000F0E098E1908380830895EDDF803219F02E
:107FD00088E0F5DFFFCF84E1DECF1F93182FE3DFCA
:107FE0001150E9F7F2DF1F91089580E0E8DFEE27F6
:047FF000FF270994CA
:027FFE00040479
:0400000300007E007B
:00000001FF
